:1000260050617373776F7264204572726F7221002C
:100036004572726F722074696D65733A005265730A
:100046006574005375636365737366756C6C7900CC
:100056004C6F636B005375636365737366756C6C85
:10006600792100456E7472792044656E69616C2150
:1000760000506C65617365207472792061667465E1
:10008600722031206D696E7574652E004D756C7425
:100096006946756E63204C6F636B0073656C6563B0
:1000A60074206F70656E206D6F646500312E70610F
:1000B6007373776F726400322E66696E676572704D
:1000C60072696E7400332E726669642063617264AD
:1000D60000506C6561736520656E746572007061B1
:1000E6007373776F72643A0057616974696E67203B
:1000F600666F722063617264005072657373206963
:100106006E692D627574746F6E00746F20717569F7
:10011600742E0057454C434F4D4521004D756C7468
:100126006946756E6300312E726573657420706161
:100136007373776F726400322E66696E676572201C
:1001460073657400332E636C6F636B6D75736963CF
:100156002073657400342E6C6F636B006E657720B8
:1001660070617373776F72643A0046696E67657281
:100176007072696E74204D6F646500312E6164641F
:100186002066696E6765727300322E64656C6574ED
:10019600652066696E6765727300332E65786974CB
:1001A60000636C6F636B206D757369632069733AC6
:1001B60000736F6E6700736F6E673120697320720C
:1001C600656164792E00736F6E67322069732072E1
:1001D600656164792E00736F6E67332069732072D0
:1001E600656164792E00736F6E67342069732072BF
:1001F600656164792E00736F6E67352069732072AE
:10020600656164792E00436C6F636B3120697320DE
:100216006F6E21006D7573696320736F6E67312E83
:10022600006D7573696320736F6E67322E006D758E
:1002360073696320736F6E67332E006D7573696320
:1002460020736F6E67342E006D7573696320736F4C
:100256006E67352E006D6164652062792020574AED
:1002660043002057584200204C5100000305091155
:10027600FF118905C300E000F000F800000000004F
:1002860000004428FF11AA440000000000000000FE
:100296000000000000000000000000000000000058
:1002A6000000000000000000000000000000000048
:1002B6000000000000000000000000000000000038
:1002C600000000000083013844829292740183008A
:1002D6000000000000007C44FF017D7D7D017D7DE6
:1002E6007D7D017D7D7D7D7D01FF0000000000009C
:1002F60001000100010001000100010000000000F2
:1003060000000000010100000000000000000000E5
:1003160000000000000000000000000000000000D7
:1003260000000000000000000000000000000000C7
:1003360000000000000000000000000000000000B7
:1003460000000000000101000000000000010100A3
:10035600000000000000000001010101010101018F
:10036600010101010101010101010000000000007D
:100376000000000000000000000000000000000077
:10038600000000000000003F3F0303F313111111AA
:1003960011111101F1116181010101816111F10157
:1003A6000101014141F10101010101C121111111B7
:1003B6001121C1010101014141F1010101010101C7
:1003C600010101011111111111D33303033F3F0044
:1003D6000000000000000000000000000000000017
:1003E6000000000000000000000000000000000007
:1003F60000000000000000000000000000000000F7
:1004060000000000000000E0E000007F01010101A3
:10041600010100007F0000010618060100007F00B0
:1004260000000040407F40400000001F2040404048
:1004360040201F0000000040407F404000000000B8
:10044600600000000040300C0300000000E0E00007
:100456000000000000000000000000000000000096
:100466000000000000000000000000000000000086
:100476000000000000000000000000000000000076
:100486000000000000000007070606060604040434
:100496008444444484040484444444840404048416
:1004A600C404040404844444448404040404048406
:1004B60044444484040404040484444444840404F6
:1004C600844444448404040404060606060707001C
:1004D6000000000000000000000000000000000016
:1004E6000000000000000000000000000000000006
:1004F60000000000000000000000000000000000F6
:1005060000000000000000000000000000000000E5
:10051600101814121100000F1010100F0000001018
:100526001F10000000081012120D00001800000D28
:100536001212120D000018000010181412110000FB
:100546001018141211000000000000000000000046
:100556000000000000000000000000000000000095
:100566000000000000000000000000000000000085
:100576000000000000000000000000000000000075
:100586000000000000000000000000000000000065
:100596000000000000000000000000000000000055
:1005A6000000000000000080808080808080800045
:1005B6000000000000000000000000000000000035
:1005C6000000000000000000000000000000000025
:1005D6000000000000000000000000000000000015
:1005E6000000000000000000000000007F030C3047
:1005F6000C037F00003854545800007C0404780033
:10060600003C40407C0000000000000000000000AC
:1006160000000000000000000000000000000000D4
:1006260000000000000000FFAAAAAA280800FF0098
:1006360000000000000000000000000000000000B4
:1006460000000000000000000000000000000000A4
:10065600000000007F030C300C037F000026494990
:10066600493200007F020408107F000003050911CB
:10067600FF118905C300E000F000F800000000004B
:1006860000004428FF11AA440000000000000000FA
:100696000000000000000000000000000000000054
:1006A6000000000000000000000000000000000044
:1006B6000000000000000000000000000000000034
:1006C6000000000000830138448292927401830086
:1006D6000000000000007C44FF017D7D7D7D017DE2
:1006E6007D7D7D017D7D7D7D01FF00000000000098
:1006F60001000100010001000100010000000000EE
:1007060000000000010100000000000000000000E1
:1007160000000000000000000000000000000000D3
:1007260000000000000000000000000000000000C3
:1007360000000000000000000000000000000000B3
:10074600000000000001010000000000000101009F
:10075600000000000000000001010101010101018B
:100766000101010101010101010100000000000079
:100776000000000000000000000000000000000073
:1007860000000000000000000000F8080808080843
:10079600080800F8186080000000806018F8000063
:1007A600002020F8000000000000E01008080808FB
:1007B60010E00000002020F800000000000000000B
:1007C60000000000080808080888681800000000F3
:1007D6000000000000000000000000000000000013
:1007E6000000000000000000000000000000000003
:1007F60000000000000000000000000000000000F3
:10080600000000000000000000007F01010101015E
:100816000100007F0000010618060100007F0000AD
:100826000040407F4040000000001F204040404004
:10083600201F00000040407F404000000000006094
:100846000000000000006018060100000000000023
:100856000000000000000000000000000000000092
:100866000000000000000000000000000000000082
:100876000000000000000000000000000000000072
:100886000000000000000000000000000000000062
:1008960040202020C00000E0202020E00000004092
:1008A600E00000000060202020E00000000000E0E2
:1008B600202020E0000000000040202020C0000092
:1008C60040202020C00000000000000000000000C2
:1008D6000000000000000000000000000000000012
:1008E6000000000000000000000000000000000002
:1008F60000000000000000000000000000000000F2
:1009060000000000000000000000000000000000E1
:100916000C0A0A090C00000F0808080F000000085E
:100926000F080000000C0809090E00000C00000F5B
:100936000909090F00000C00000C0A0A090C000046
:100946000C0A0A090C00000000000000000000006C
:100956000000000000000000000000000000000091
:100966000000000000000000000000000000000081
:100976000000000000000000000000000000000071
:100986000000000000000000000000000000000061
:100996000000000000000000000000000000000051
:1009A6000000000000000080808080808080800041
:1009B6000000000000000000000000000000000031
:1009C6000000000000000000000000000000000021
:1009D6000000000000000000000000000000000011
:1009E6000000000000000000000000007F030C3043
:1009F6000C037F00003854545800007C040478002F
:100A0600003C40407C0000000000000000000000A8
:100A160000000000000000000000000000000000D0
:100A260000000000000000FFAAAAAA280800FF0094
:100A360000000000000000000000000000000000B0
:100A460000000000000000000000000000000000A0
:100A5600000000007F030C300C037F00002649498C
:100A6600493200007F020408107F000000000000E9
:100A7600E0300C0C848484A4B49C889894A4848468
:100A860084840818608000000000008070180C0440
:100A9600FA03310D030000C0A0D0D0F0F0E0C00092
:100AA600020D1961C03F000810A080030E18300027
:100AB600FCC38CB040800003070F0F0F0F07030025
:100AC600C060988E01FC00100C07000000000000BA
:100AD600070C301021212326253911192925222119
:0B0AE600202010180E0300000000008C
:103A9F00C101C102C105C106C108C10BC100C107E7
:103AAF00C109C10AC104C10343005701005A602074
:103ABF0000232A2A2A2A2A2A2A2A2A2A2A2A2A2A88
:103ACF002A2A2A2A2A2A2A2A2A2A2A2A2A2A2A2A47
:103ADF002A2A41005000410000FF410043004200EC
:0E3AEF00490000420044000243004601004B23
:0449A3007FE87E0328
:1049A700EF1FAA0670011E4A6013E4FCFDC3ED94D5
:0D49B7007DEC940050EA0DBD00010C80F075
:0149C40022D0
:0545D10090007DEFF0F9
:1045D600E490007FF090007DE0FF90007FE0C39FB5
:1045E6005029E490007EF0B2837F647E00124C472F
:1045F60090007EE004F0E0C3946440EB7FC87E0048
:0D460600124A6B90007FE004F080CAD2835E
:014613002284
:0B4C3C00EF1FAC0670011E4C70F6224A
:0546960090007CEFF034
:10469B00E490007EF090007CE0FF90007EE0C39FF2
:1046AB005022E490007DF0B2837F647E00124C4771
:1046BB0090007DE004F0E0C3946440EB90007EE05A
:0646CB0004F080D1D2834F
:0146D10022C6
:024A0700AD07F9
:104A0900E4FBEBC39D5015C2807F887E13124C3C9A
:0C4A1900D2807FB87E0B124C3C0B80E674
:014A2500226E
:10442200900057E0FBA3E0FAA3E0F990008074202B
:10443200F0E4FF124487900046E0FBA3E0FAA3E019
:10444200F99000807405F07F0112448790004BE0E0
:10445200900051F090004CE0900052F090004DE03E
:10446200900053F090004EE0900055F090004FE025
:10447200900056F07B017A0079B09000807403F0CE
:054482007F02024487E7
:1041F50030046EE4900049F0A3F0900044E0FEA383
:10420500E0FF7D0512416F90004AE004F0700690D2
:104215000049E004F0900049E0B402DEA3E0B4FDFB
:10422500D9124C511249A3E4900049F0A3F0900033
:1042350044E0FEA3E0FFE4FD12416F90004AE00474
:10424500F07006900049E004F0900049E0B402DE09
:10425500A3E0B4FDD9124C51E4900049F0A3F0C29B
:014265000454
:014266002235
:10200300200E3B30173820023520153220062F9042
:102013000022E0FFC394014025EFD39403501FEF48
:1020230024FE600B14600C24027013D2028006D2CB
:10203300158002D2069000227410F01248C7300EA9
:10204300030224192017030224192002030224196E
:10205300900022E0FFC394005003022419EFD394AD
:102063000F4003022419EFB4100040030224199017
:102073002079F82828730220A90220C30220DD0258
:1020830020F702211102212B02214502215E0221A8
:10209300770221900221A90221C20221E302223404
:1020A30002224F0223E0900050E0FFB420030224F9
:1020B3001974022FF582E43400F58374300221D9B8
:1020C300900050E0FFB4200302241974022FF5821C
:1020D300E43400F58374310221D9900050E0FFB459
:1020E300200302241974022FF582E43400F583746B
:1020F300320221D9900050E0FFB420030224197466
:10210300022FF582E43400F58374330221D9900061
:1021130050E0FFB4200302241974022FF582E43443
:1021230000F58374340221D9900050E0FFB42003FA
:1021330002241974022FF582E43400F58374350206
:1021430021D9900050E0FFB4200302241974022F18
:10215300F582E43400F5837436807B900050E0FF11
:10216300B4200302241974022FF582E43400F583AA
:1021730074378062900050E0FFB420030224197486
:10218300022FF582E43400F58374388049900050BF
:10219300E0FFB4200302241974022FF582E4340013
:1021A300F58374398030900050E0FFB4200302249B
:1021B3001974022FF582E43400F58374618017905B
:1021C3000050E0FFB4200302241974022FF582E4C7
:1021D3003400F5837462F0900050E004F002241997
:1021E300900050E0FFC394004047EFB4100B900001
:1021F30043E014F0E07002C209900050E0B42006FE
:10220300900043E014F0900050E070030224199012
:102213000043E02405FF124B7B900050E02402F5BD
:1022230082E43400F583E4F0900050E014F00224DB
:1022330019200807200704D208D207200803022424
:1022430019300703022419C2080224197B017A00FA
:10225300795A12000EC006C0077B017A0079021278
:10226300000ED005D004EF6D7002EE6C6005C20B5A
:10227300022328E4900050F07B017A00795A12007F
:102283000E900050E0C39FEE6480F8748098504530
:10229300E0FF245AF582E43400F583E0FE74022F54
:1022A300F582E43400F583E0B50604D20B8002C264
:1022B3000B300B717B017A00795A12000E9000509B
:1022C300E07C00B50707ECB50603200B089000502F
:1022D300E004F080A3C2179000B07430F0A3F07B49
:1022E300017A0079B09000857403F07F021242D91D
:1022F300D20DE4900054F0900050E0FF900054E0C1
:10230300FEC39F501474022EF582E43400F583E477
:10231300F0900054E004F080DEE4900050F0900070
:1023230043F00224191248C77BFF7A0079269000F4
:10233300867412F0E4FD7F011244E97F051245D152
:102343009000B0E004F07B017A0079B090008574CE
:1023530003F07F021242D99000B0E0B4331690002C
:10236300B27401F0FB7A0079B09000857403F07FBA
:10237300021242D97BFF7A0079369000867412F0FC
:102383007D027F011244E99000B0E0FB90008B7462
:1023930012F07D027F64123B7A7F03124A07E490B6
:1023A3000054F0900050E0FF900054E0FEC39F50B3
:1023B3001474022EF582E43400F583E4F0900054A3
:1023C300E004F080DEC209C20AC202E4900043F0D6
:1023D300900050F07FF47E011249A78036E490000C
:1023E30054F0900050E0FF900054E0FEC39F50145F
:1023F30074022EF582E43400F583E4F0900054E097
:1024030004F080DEC209C20AC202E4900043F090E5
:102413000050F01248C7200E030227523017030260
:102423002752900022E0FFC394005003022752EF8B
:10243300D3940F4003022752300503022752EFB40F
:1024430010004003022752902451F82828730224D5
:102453008102249B0224B50224CF0224E90225032E
:1024630002251D02253602254F0225680225810219
:10247300259A0225BB02260C022627022717900065
:1024830050E0FFB4200302275274022FF582E43494
:1024930000F58374300225B1900050E0FFB42003AF
:1024A30002275274022FF582E43400F5837431025B
:1024B30025B1900050E0FFB4200302275274022F8D
:1024C300F582E43400F58374320225B1900050E0C4
:1024D300FFB4200302275274022FF582E43400F57F
:1024E3008374330225B1900050E0FFB42003022728
:1024F3005274022FF582E43400F58374340225B15B
:10250300900050E0FFB4200302275274022FF5829B
:10251300E43400F58374350225B1900050E0FFB434
:10252300200302275274022FF582E43400F58374EA
:1025330036807B900050E0FFB420030227527402E0
:102543002FF582E43400F58374378062900050E005
:10255300FFB4200302275274022FF582E43400F5FE
:102563008374388049900050E0FFB420030227525F
:1025730074022FF582E43400F583743980309000BF
:1025830050E0FFB4200302275274022FF582E43493
:1025930000F58374618017900050E0FFB4200302BC
:1025A300275274022FF582E43400F5837462F090AD
:1025B3000050E004F0022752900050E0FFC3940063
:1025C3004047EFB4100B900043E014F0E07002C2F8
:1025D30009900050E0B42006900043E014F090000E
:1025E30050E07003022752900043E02405FF124B92
:1025F3007B900050E02402F582E43400F583E4F09C
:10260300900050E014F0022752200807200704D25C
:1026130008D207200803022752300703022752C2B9
:1026230008022752E4900054F07B017A00795A1291
:10263300000E900054E0FDC39FEE6480F874809810
:102643005014745A2DF582E43400F583E4F09000BD
:1026530054E004F080D3E4900054F07B017A0079D5
:102663000212000E900054E0C39FEE6480F8748061
:10267300985021E0FF2402F582E43400F583E0FE64
:10268300745A2FF582E43400F583EEF0900054E0A1
:1026930004F080C7E4900054F0900050E0FF9000F5
:1026A30054E0FEC39F501474022EF582E43400F507
:1026B30083E4F0900054E004F080DE7B017A00793B
:1026C3005A9000857420F0E4FF1242D9C20EC20171
:1026D300C209C20AE4900043F0900050F01248C7C8
:1026E3007BFF7A0079439000867424F07D037F1882
:1026F3001244E97BFF7A0079499000867424F07DC7
:10270300047F181244E97F02124A077FF47E011204
:1027130049A78038E4900054F0900050E0FF900007
:1027230054E0FEC39F501474022EF582E43400F586
:1027330083E4F0900054E004F080DEC209C20AC2D0
:102743000EC201E4900043F0900050F01248C720FD
:102753000E75201772900022E0FFC394014068EFCA
:10276300D394045062EF24FE6010146013146016B7
:1027730024037053D20ED201804AD20ED214804465
:10278300D20ED205803EC20ED2171248C77BFF7A03
:102793000079569000867424F07D037F181244E973
:1027A3007BFF7A00795B9000867424F07D047F18A8
:1027B3001244E97F021248ED7F03124A077FF47E39
:0727C300011249A71248C7EB
:0127CA0022EC
:103DC700E490007CF075900FE590640F7003023E5D
:103DD7005B7FE87E03124C3CE590640F606D7F01CA
:103DE700124A0775900FAF90EF24F5601224FE601A
:103DF7001614601B2407701DE4900022F0801690B3
:103E070000227401F0800E9000227402F080069068
:103E170000227403F07590F0AF90EF249060252492
:103E2700C0601824E0600B24F07020900022E0F0BE
:103E37008019900022E02404F08010900022E024F2
:103E470008F08007900022E0240CF02006062014DA
:103E57000312200390007CE0C3648094CB5012E5EA
:103E67009064F0600C7F647E00124C3CE004F080AC
:013E7700E367
:013E78002227
:101589009000B2E064017073C2AF7BFF7A007969A1
:10159900900086741EF0E4FDFF1244E97BFF7A0097
:1015A9007977900086741EF07D02E4FF1244E97F8A
:1015B900141246967FB87E0B1249A71248C79000AD
:1015C900B0E0B433147430F07B017A0079B0900044
:1015D900857403F07F021242D99000B1E0B433144C
:1015E9007430F07B017A0079B09000857403F07F44
:1015F900021242D9D2AFE49000B2F0200E71301736
:101609006E20026B2015682006659000B2E0705FBD
:101619007BFF7A0079929000867410F0E4FD7F07D1
:101629001244E97BFF7A0079A1900086740EF07D5F
:1016390002E4FF1244E97BFF7A0079B290008674D4
:101649000AF07D047F0C1244E97BFF7A0079BD9092
:101659000086740AF07D057F0C1244E97BFF7A004D
:1016690079CB900086740AF07D067F0C1244E9203C
:101679000E1B3017183015152016129000B2E070A5
:101689000CC2AC7FD47E30124C3C1243B8200E1AE7
:101699003017173015143016119000B2E0700BC2D4
:1016A9001612350C2015031248C720080E30000BFE
:1016B9009000B2E070051248C7C200300E0302184C
:1016C90018201703021818200203021818300803FB
:1016D9000218189000B2E060030218187BFF7A0024
:1016E90079D7900086741EF07D02E4FF1244E97BED
:1016F900FF7A0079E4900086741EF07D037F321230
:1017090044E9900043E07037900054F0900050E0B5
:10171900FF900054E0FEC39F5025EE75F008A4FF2A
:1017290074232EF582E43400F583E0FB90008B747A
:101739001EF07D05123B7A900054E004F080CD3014
:101749000932E4900054F0900054E0FE75F008A4CA
:10175900FF74232EF582E43400F583E0FB90008BBF
:10176900741EF07D05123B7A900054E004F0E0C34A
:10177900941040D3900050E0B4100B900043E070F7
:1017890005E004F0D209900043E06401703990004B
:1017990054F0900050E024F0FF900054E0FEC39F05
:1017A9005025EE75F008A4FF74332EF582E4340059
:1017B900F583E0FB90008B741EF07D06123B7A9056
:1017C9000054E004F080CB300A32E4900054F090E9
:1017D9000054E0FE75F008A4FF74332EF582E4345A
:1017E90000F583E0FB90008B741EF07D06123B7AB6
:1017F900900054E004F0E0C3941040D3900050E00E
:10180900B4200C900043E0B401057402F0D20A3010
:101819000E0302197920170302197920020302190C
:10182900792008030219799000B2E060030219795E
:101839002000031248C77BFF7A0079D7900086748D
:101849001EF07D02E4FF1244E97BFF7A0079E490FF
:101859000086741EF07D037F321244E9900043E054
:101869007037900054F0900050E0FF900054E0FE73
:10187900C39F5025EE75F008A4FF74022EF582E48B
:101889003400F583E0FB90008B741EF07D05123B5C
:101899007A900054E004F080CD300932E49000548D
:1018A900F0900054E0FE75F008A4FF74022EF58252
:1018B900E43400F583E0FB90008B741EF07D051283
:1018C9003B7A900054E004F0E0C3941040D39000B8
:1018D90050E0B4100B900043E07005E004F0D20929
:1018E900900043E064017039900054F0900050E09A
:1018F90024F0FF900054E0FEC39F5025EE75F008D8
:10190900A4FF74122EF582E43400F583E0FB900005
:101919008B741EF07D06123B7A900054E004F0802F
:10192900CB300A32E4900054F0900054E0FE75F098
:1019390008A4FF74122EF582E43400F583E0FB90CD
:10194900008B741EF07D06123B7A900054E004F07F
:10195900E0C3941040D3900050E0B4200C900043B1
:10196900E0B401057402F0D20AD200300702C207BE
:10197900200E5B3017583006559000B2E0704F7B4F
:10198900FF7A0079EE900086741EF07D01E4FF1263
:1019990044E97F01124C167F647E00124B347BFFB1
:1019A9007A0079FF900086741EF07D04E4FF1244EA
:1019B900E97BFF7A017910900086741EF07D057F1E
:1019C9001A1244E93098FDC2061248C7D2AC200E5B
:1019D90033201730300D2D9000B2E070271248C720
:1019E9007BFF7A0179199000867424F07D047F3A8F
:1019F9001244E97F03124A07D2041241F5C20DC20B
:101A0900021248C7300E03021AAF301703021AAF89
:101A19009000B2E06003021AAF90007F7404F0A353
:101A290074FFF0A3740AF0A37471F07B22E4FD7FC4
:101A390002123FC47BFF7A0179229000867420F05C
:101A49007D017F321244E97BFF7A00795690008646
:101A59007420F07D027F461244E97BFF7A01792CDC
:101A6900900086741EF07D04E4FF1244E97BFF7A3E
:101A790001793D900086741EF07D05E4FF1244E96A
:101A89007BFF7A01794A900086741EF07D06E4FF97
:101A99001244E97BFF7A01795B900086741EF07D20
:101AA90007E4FF1244E9200E030220029000B2E08D
:101AB9006003022002200103021BFD300803021B00
:101AC900FD7BFF7A0079D7900086741EF07D01E4D2
:101AD900FF1244E97BFF7A017962900086741EF057
:101AE9007D027F141244E9900043E070379000545E
:101AF900F0900050E0FF900054E0FEC39F5025EEA7
:101B090075F008A4FF74232EF582E43400F583E010
:101B1900FB90008B741EF07D05123B7A900054E017
:101B290004F080CD300932E4900054F0900054E084
:101B3900FE75F008A4FF74232EF582E43400F583C2
:101B4900E0FB90008B741EF07D05123B7A900054E7
:101B5900E004F0E0C3941040D3900050E0B4100BBF
:101B6900900043E07005E004F0D209900043E0647E
:101B7900017039900054F0900050E024F0FF90007B
:101B890054E0FEC39F5025EE75F008A4FF74332E70
:101B9900F582E43400F583E0FB90008B741EF07D40
:101BA90006123B7A900054E004F080CB300A32E40C
:101BB900900054F0900054E0FE75F008A4FF7433CF
:101BC9002EF582E43400F583E0FB90008B741EF05F
:101BD9007D06123B7A900054E004F0E0C394104073
:101BE900D3900050E0B4200C900043E0B401057498
:101BF90002F0D20A200103021D4D200803021D4DE7
:101C09002000031248C77BFF7A0079D790008674B9
:101C19001EF07D01E4FF1244E97BFF7A01796290AD
:101C29000086741EF07D027F141244E9900043E09F
:101C39007037900054F0900050E0FF900054E0FE9F
:101C4900C39F5025EE75F008A4FF74022EF582E4B7
:101C59003400F583E0FB90008B741EF07D05123B88
:101C69007A900054E004F080CD300932E4900054B9
:101C7900F0900054E0FE75F008A4FF74022EF5827E
:101C8900E43400F583E0FB90008B741EF07D0512AF
:101C99003B7A900054E004F0E0C3941040D39000E4
:101CA90050E0B4100B900043E07005E004F0D20955
:101CB900900043E064017039900054F0900050E0C6
:101CC90024F0FF900054E0FEC39F5025EE75F00804
:101CD900A4FF74122EF582E43400F583E0FB900032
:101CE9008B741EF07D06123B7A900054E004F0805C
:101CF900CB300A32E4900054F0900054E0FE75F0C5
:101D090008A4FF74122EF582E43400F583E0FB90F9
:101D1900008B741EF07D06123B7A900054E004F0AB
:101D2900E0C3941040D3900050E0B4200C900043DD
:101D3900E0B401057402F0D20AD2002007030220A0
:101D490002C20722201403021DE37BFF7A01797086
:101D59009000867424F07D02E4FF1244E97BFF7A47
:101D6900017981900086741EF07D04E4FF1244E934
:101D79007BFF7A01798F900086741EF07D05E4FF60
:101D89001244E97BFF7A0179A0900086741EF07DE8
:101D990006E4FF1244E99000227410F0123DC79046
:101DA9000022E0B4010DD2111248C7124A2612329C
:101DB900B08012900022E0B4020ED2121248C7126B
:101DC9004A26123C48024A45900022E06403600317
:101DD900022002C214C20E0248C7200503022002D3
:101DE9007BFF7A0179A7900086741EF0E4FDFF124B
:101DF90044E97BFF7A0179B7900086741EF07D0271
:101E09007F0A1244E9900022E024FE603A146053EC
:101E1900146071147003021EAE24F77003021ECE03
:101E2900147003022000240E600302200290008B2C
:101E3900741EF07B317D027F2A123B7A9000517427
:101E490001F0E4A3F0801890008B741EF07B327DC2
:101E5900027F2A123B7AE4900051F0A304F0E4A334
:101E6900F0801A90008B741EF07B337D027F2A125A
:101E79003B7AE4900051F0A3F0A304F0E4900055FC
:101E8900F0A3F02290008B741EF07B347D027F2A30
:101E9900123B7AE4900051F0A3F0A3F090005504AE
:101EA900F0E4A3F02290008B741EF07B357D027F55
:101EB9002A123B7AE4900051F0A3F0A3F090005568
:101EC900F0A304F022900051E0640170351248C774
:101ED9007BFF7A0179BC900086741EF0E4FDFF1245
:101EE90044E990004B7401F0FB7A00794B9000852E
:101EF9007405F07F011242D91249A31248C7C205DD
:101F0900C20E900052E0640170351248C77BFF7A17
:101F19000179CC900086741EF0E4FDFF1244E9902B
:101F2900004B7401F0FB7A00794B9000857405F041
:101F39007F011242D91249A31248C7C205C20E90A5
:101F49000053E0640170351248C77BFF7A0179DCE0
:101F5900900086741EF0E4FDFF1244E990004B7472
:101F690001F0FB7A00794B9000857405F07F01122E
:101F790042D91249A31248C7C205C20E900055E0C2
:101F8900640170351248C77BFF7A0179EC900086AD
:101F9900741EF0E4FDFF1244E990004B7401F0FB5C
:101FA9007A00794B9000857405F07F011242D912AD
:101FB90049A31248C7C205C20E900056E0640170D9
:101FC900381248C77BFF7A0179FC900086741EF0AD
:101FD900E4FDFF1244E990004B7401F0FB7A0079AB
:101FE9004B9000857405F07F011242D91249A31262
:0A1FF90048C7C205C20E22C205222D
:0300230002434B4A
:10434B00C0E0C0F0C083C082C0D075D000C000C038
:0D435B0001C002C003C004C005C006C007B9
:1043680090007AE599F030982CE06401701C3017C1
:1043780019C201C202C206C20EC217C216D20DC2AB
:1043880015C211C212C2141248C790007AE0B402D2
:0543980002D203C298EF
:10439D00D007D006D005D004D003D002D001D00074
:0B43AD00D0D0D082D083D0F0D0E0321E
:1038A0002003030239BE900051E0640170301248D9
:1038B000C77BFF7A02790C900086741EF0E4FDFF4E
:1038C0001244E97BFF7A02791A900086741EF07D1B
:1038D00002E4FF1244E9124BC81248C7C203900029
:1038E00052E0640170301248C77BFF7A02790C9075
:1038F0000086741EF0E4FDFF1244E97BFF7A027932
:1039000027900086741EF07D02E4FF1244E9124BFA
:10391000D91248C7C203900053E0640170301248C6
:10392000C77BFF7A02790C900086741EF0E4FDFFDD
:103930001244E97BFF7A027934900086741EF07D90
:1039400002E4FF1244E9124B911248C7C2039000EF
:1039500055E0640170301248C77BFF7A02790C9001
:103960000086741EF0E4FDFF1244E97BFF7A0279C1
:1039700041900086741EF07D02E4FF1244E9124B70
:10398000A41248C7C203900056E064017030124888
:10399000C77BFF7A02790C900086741EF0E4FDFF6D
:1039A0001244E97BFF7A02794E900086741EF07D06
:0F39B00002E4FF1244E9124B911248C7C20322EE
:10426700124A451239BF124422D2AC1248C7124C27
:10427700517BFF7A007992900086741EF07D017F52
:10428700071244E97BFF7A02795B9000867408F095
:104297007D047F0F1244E97BFF7A027968900086DC
:1042A7007408F07D057F501244E97BFF7A02796D2F
:1042B7009000867408F07D067F501244E97F647E83
:1042C70000124B341248C7123DC71215891238A085
:0242D70080F570
:0D479E00C2A61247ABC286D287C2A7C2A630
:1047AB00E4FDFCC3ED9FEC9E5015E4FBFA0BBB0044
:0F47BB00010AEB646E4A70F50DBD00010C80E43D
:0147CA0022CC
:094C5100C286C287C2A7C2A622D6
:10416F008F828E83ED703AC286C287C2A7D2A61203
:10417F0047ABC286C287D2A7D2A61247ABC286C2AE
:10418F0087D2A7C2A61247ABC286D287D2A7124741
:10419F009ED2861247A5D286C2871247A7D28680A3
:1041AF003BD286C287C2A7D2A6AF82AE831247ABDD
:1041BF00D286D287C2A712479EC286D287D2A7C203
:1041CF00A61247ABC286C287D2A7C2A61247ABC2FE
:1041DF0086C287D2A7D2A61247ABC286C287C2A712
:0641EF00D2A61247AB222C
:100AF1000000000000000000002F000000000700BF
:100B0100070000147F147F1400242A7F2A12006238
:100B110064081323003649552250000005030000E4
:100B210000001C224100000041221C000014083E6C
:100B310008140008083E0808000000A06000000832
:100B41000808080800006060000000201008040286
:100B5100003E5149453E0000427F40000042615144
:100B61004946002141454B31001814127F100027DE
:100B710045454539003C4A494930000171090503A1
:100B810000364949493600064949291E00003636D2
:100B91000000000056360000000814224100001435
:100BA1001414141400004122140800020151090612
:100BB10000324959513E007C1211127C007F494993
:100BC1004936003E41414122007F4141221C007FC4
:100BD10049494941007F09090901003E4149497AD2
:100BE100007F0808087F0000417F4100002040414C
:100BF1003F01007F08142241007F40404040007FB8
:100C0100020C027F007F0408107F003E4141413EFB
:100C1100007F09090906003E4151215E007F091943
:100C210029460046494949310001017F0101003F40
:100C31004040403F001F2040201F003F4038403FC0
:100C41000063140814630007087008070061514924
:100C5100454300007F41410000552A552A550000B7
:100C610041417F0000040201020400404040404035
:100C7100000001020400002054545478007F4844CD
:100C8100443800384444442000384444487F003804
:100C91005454541800087E0901020018A4A4A47C2D
:100CA100007F080404780000447D400000408084F7
:100CB1007D00007F102844000000417F4000007C3F
:100CC10004180478007C080404780038444444384B
:100CD10000FC242424180018242418FC007C080497
:100CE100040800485454542000043F444020003C70
:100CF1004040207C001C2040201C003C4030403CF7
:100D0100004428102844001CA0A0A07C0044645486
:100D11004C441414141414140000000000000000CA
:100D21000000000000000000000000F800000000CA
:100D3100000000333000000000100C06100C06000B
:100D4100000000000000000040C07840C078400072
:100D5100043F04043F040400007088FC08300000D4
:100D6100001820FF211E0000F008F000E01800002C
:100D710000211C031E211E0000F0088870000000E5
:100D81001E2123241927211010160E000000000037
:100D91000000000000000000000000E01804020054
:100DA100000000071820400000020418E0000000C5
:100DB1000040201807000000404080F080404000C3
:100DC1000202010F01020200000000F00000000019
:100DD1000101011F010101000000000000000000ED
:100DE10080B0700000000000000000000000000062
:100DF10000010101010101010000000000000000EB
:100E01000030300000000000000000008060180485
:100E1100006018060100000000E010080810E00062
:100E2100000F102020100F00001010F8000000002B
:100E31000020203F20200000007008080888700072
:100E410000302824222130000030088888483000F2
:100E51000018202020110E000000C02010F8000012
:100E610000070424243F240000F8088888080800AB
:100E71000019212020110E0000E0108888180000C0
:100E8100000F112020110E0000380808C838080092
:100E91000000003F00000000007088080888700012
:100EA100001C222121221C0000E010080810E00093
:100EB1000000312222110F00000000C0C00000001C
:100EC1000000003030000000000000800000000041
:100ED1000000806000000000000080402010080039
:100EE1000001020408102000404040404040400002
:100EF10004040404040404000008102040800000DD
:100F01000020100804020100007048080808F000E1
:100F11000000003036010000C030C828E810E000B1
:100F21000718272423140B000000C038E00000003C
:100F3100203C23020227382008F8888888700000A6
:100F4100203F202020110E00C0300808080838007A
:100F5100071820202010080008F808080810E000F1
:100F6100203F202020100F0008F88888E808100092
:100F7100203F20202320180008F88888E808100066
:100F8100203F200003000000C0300808083800009E
:100F910007182020221E020008F808000008F8089F
:100FA100203F210101213F20000808F80808000026
:100FB1000020203F2020000000000808F808080059
:100FC100C08080807F00000008F888C028180800D1
:100FD100203F20012638200008F80800000000000A
:100FE100203F20202020300008F8F800F8F8080001
:100FF100203F003F003F200008F830C00008F808FB
:10100100203F200007183F00E01008080810E0000A
:101011000F10202020100F0008F808080808F00021
:10102100203F210101010000E01008080810E00044
:101031000F18242438504F0008F8888888887000D9
:10104100203F2000030C3020007088080808380079
:101051000038202121221C00180808F8080818006F
:101061000000203F2000000008F808000008F808F0
:10107100001F202020201F000878880000C83808A1
:10108100000007380E010000F80800F80008F80019
:10109100033C0700073C03000818688080681808B3
:1010A10020302C03032C30200838C800C838080031
:1010B1000000203F2000000010080808C838080080
:1010C1002038262120201800000000FE0202020024
:1010D1000000007F40404000000C30C000000000D4
:1010E100000000010638C00000020202FE000000FC
:1010F100004040407F0000000000040202020400A2
:1011010000000000000000000000000000000000DE
:1011110080808080808080800002020400000000C6
:1011210000000000000000000000808080800000BE
:101131000019242222223F2008F8008080000000AC
:10114100003F112020110E0000000080808000006F
:10115100000E112020201100000000808088F8007E
:10116100000E112020103F200000808080800000B0
:10117100001F222222221300008080F08888881814
:101181000020203F2020000000008080808080001F
:10119100006B94949493600008F8008080800000B4
:1011A100203F210000203F2000809898000000008F
:1011B1000020203F202000000000008098980000BF
:1011C10000C08080807F000008F8000080808000DF
:1011D100203F24022D302000000808F80000000004
:1011E1000020203F202000008080808080808000BF
:1011F100203F20003F20003F808000808080000051
:10120100203F210000203F200000808080800000DE
:10121100001F202020201F0080800080800000000F
:1012210080FFA12020110E0000000080808080003E
:10123100000E112020A0FF8080808000808080002F
:1012410020203F212000010000008080808080005C
:101251000033242424241900008080E080800000D1
:101261000000001F2020000080800000008080001E
:10127100001F202020103F2080808000008080807F
:1012810000010E300806010080800080008080800F
:101291000F300C030C300F00008080008080800034
:1012A1000020312E0E31200080808000008080805F
:1012B10080818E701806010000808080808080000F
:1012C1000021302C2221300000000000807C02022D
:1012D10000000000003F404000000000FF0000004F
:1012E10000000000FF0000000002027C80000000FE
:1012F1000040403F0000000000060101020204041A
:1013010000000000000000000000F010101010FFAD
:1013110010101010F000000000000000000000009C
:10132100000000000000000000000F04040404FF9E
:10133100040404040F00000000000000000000008D
:1013410000000000000000004040405F5555557509
:101351005555555F4040400000000000000000006E
:1013610000000000000000000040200F09498979B9
:101371000909090F204000000000000000000000E2
:10138100000000000000000000FE02424ACA4A4A72
:10139100CA4A4A4202FE00000000000000000000AC
:1013A100000000000000000000FF40504C4340409E
:1013B1004F50505C40FF00000000000000000000A2
:1013C10000000000000000000000F888888888FF05
:1013D10088888888F80000000000000000000000F4
:1013E100000000000000000000001F080808087F3E
:1013F100888888889F80F0000000000000000000BD
:10140100000000000000000080828282828282E26D
:10141100A2928A8682808000000000000000000005
:101421000000000000000000000000000040807F7C
:1014310000000000000000000000000000000000AB
:1014410000000000000000002424A4FEA3220022CA
:10145100CC0000FF000000000000000000000000C0
:101461000000000000000000080601FF0001040464
:10147100040404FF0202020000000000000000005A
:101481000000000000000000101010FF10900888FC
:101491008888FF888888080000000000000000009C
:1014A10000000000000000000444827F01808040B1
:1014B100432C10284681800000000000000000003D
:1014C1000000000000000000000004040404C43C0B
:1014D10044444484040400000000000000000000B3
:1014E100000000000000000000000020300E01009C
:1014F1000008301807000000000000000000000094
:101501000000000000000000000000040444D45E5C
:101511005ED444040400000000000000000000004C
:101521000000000000000000000008A8782ACD0992
:1015310009EDAAA8E8080000000000000000000072
:10154100000000000000000000002024E80000006E
:10155100E02638E020220400000000000000000026
:1015610000000000000000000000003C1308201CE7
:1015710003310F00071820000000000000000000E8
:08158100000000000000000062
:104B3400EF4E60157D087C07ED1DAA0470011C4A28
:094B440070F6EF1F70EA1E80E715
:014B4D002245
:094C5A00D282D281C281C2822201
:074C7300D282C281D281222E
:0B4BEA00124880124BF5AF0412488007
:054BF500D282C2822201
:07487900AC07124C5A7F78D6
:10488000C282E4FEAD07ED5480B48004D281800280
:0F489000C281EF25E0FFD282C2820EEEB408E5AE
:01489F0022F6
:0E4BFA00124879124BF5E4FF124BEA024C739D
:0E4C0800124879124BF57F40124BEA024C73B2
:1047F800E924B0FFE433FEE4FDFC124813E4FDFCB9
:0B480800FFFE1248137F10E4FDFCFED1
:10481300AB07AA06ED4C6003024C08AF03124BFA38
:014823002272
:0547CB009000F7EFF083
:1047D000E4F91247F8E49000F8F09000F7E0FF7E6B
:1047E000007D017C00124813A3E004F0E0C3948034
:0747F00040E809E9B408DB11
:0147F700229F
:104A8300D3EF9400EE940040147D657C18ED1D7007
:0D4A9300011CED4C70F7EF1F70E61E80E374
:014AA00022F3
:104B6500EF1FAA0670011E4A600BE4FDEDC3947B9E
:054B750050EE0D80F779
:014B7A002218
:08470C00900088E0FFA3E0FD2E
:10471400A907ED24B0FFE433FEE4FDFC124813E9DD
:1047240054F0C4540F7E004410FFE4FDFC124813FF
:0C473400E9540FFF7E00E4FDFC02481376
:104B4E007F8D12480FE4FDFC7F14FE124813E4FD26
:074B5E00FC7FAFFE024813CB
:104BB700E4FDFC7F8D124809E4FDFC7FAEFE024850
:014BC70013DA
:1048C700E4F91247F8E4900081F07D017C00E4FFF1
:1048D700FE124813900081E004F0E0C3948040EAA0
:0548E70009E9B408DD41
:0148EC0022A9
:104B7B00EF1247F9E4F97D017C00E4FFFE124813C4
:054B8B0009E9B480F10E
:014B90002202
:10474000A907ED24B0FFE433FEE4FDFC1248137E1C
:10475000007410FFE4FDFC124813E9540FFF7E00C3
:10476000E4FDFC1248137D017C00E4FFFE024813C7
:1048A000E4F91247F8E49000F9F07D017C007F0103
:1048B0007E001248139000F9E004F0E0C3948040B9
:0648C000E909E9B408DC7F
:0148C60022CF
:0B3B7A00900089EDF0900088EFF0FD56
:103B8500E490008CF0F9EB24E0F0EDD3947F400A4B
:103B9500E4900088F0A3E02402F090008BE064102C
:103BA500706E12470CE4F990008CE075F010A429B2
:103BB500F582E435F0F583E5822419F582E5833451
:103BC5000DF583E493FF7E007D017C001248130907
:103BD500E9B408D3900088E0FFA3E004FD12471480
:103BE500E4F990008CE075F010A429F582E435F035
:103BF500F583E5822421F582E583340DF583E4938D
:103C0500FF7E007D017C0012481309E9B408D32228
:103C150012470CE4F990008CE075F006A424F1F548
:103C250082E5F0340AF583E58229F582E43583F5EA
:103C350083E493FF7E007D017C0012481309E9B4FB
:023C450006D3A4
:013C4700225A
:074AA1009000FAEFF0A905F7
:104AA8007F017E00AD0119ED600C9000FAE0FD7CFD
:064AB800001230C680EE82
:014ABE0022D5
:0E3D0C009000DDEFF0A3EDF0A3EAF0A3EBF0E2
:103D1A00E49000E5F09000E3F09000E1E0FF90000D
:103D2A00E3E0FEC39F4003023DC6C3EF9E14FD7F3E
:103D3A000A124AA19000DFE0FCA3E0FDCFCDCFCE6E
:103D4A00CCCE1230D87C007D0A1230D89000E4ED37
:103D5A00F0A3E070369000E1E014FF9000E3E0FE8B
:103D6A00C39F5027A3E0701D9000E2E0FCC3138EAE
:103D7A00F0A4FF9000DDE02FFFA3E0FD90008BECA4
:103D8A00F07B20802B9000E57401F09000E2E0FEC9
:103D9A00C313FFA3E0FDEF8DF0A4FF9000DDE02F39
:103DAA00FFA3E0FD9000E4E02430FB90008BEEF0EE
:0C3DBA00123B7A9000E3E004F0023D238D
:013DC60022DA
:1044E900900081EFF0A3EDF0A3EBF0A3EAF0A3E9CC
:0144F900F0D2
:1044FA00E4900087F0900083E0FBA3E0FAA3E0F9E0
:10450A00900087E0F582758300123077FB602F9068
:10451A000081E0FFA3E0FD900086E090008BF0129E
:10452A003B7A900081E02408F0E0D394784007E4D5
:0E453A00F0A3E02402F0900087E004F080B7C8
:014548002250
:0D4057009000EEEBF09000ECEFF0A3EDF028
:10406400E49000EFF0124714E4F99000EEE075F0EC
:1040740040A42409F582E5F03413F583E58229F59B
:1040840082E43583F583E493FF7E007D017C001296
:1040940048139000EFE004F009E9B410CD9000EC6F
:1040A400E0FFA3E004FD124714E4F99000EEE0758C
:1040B400F040A42429F582E5F03413F583E5822940
:1040C400F582E43583F583E493FF7E007D017C0073
:0E40D4001248139000EFE004F009E9B410CD9B
:0140E20022BB
:0A3FC40090007CEFF090007EEBF01F
:103FCE00E4900083F0A3F090007FE0FF54077008A8
:103FDE00EF131313541F800A90007FE01313135432
:103FEE001F04900086F0900086EDF090007FE0FFB9
:103FFE00900086E0FDC39F504F90007CE0FF12477B
:10400E0014E0900085F090007EE0FF900085E0C304
:10401E009F502D900080E0FBA3E0FAA3E0F9A3E40B
:10402E0075F00112312D85F082F583123077FF7E07
:10403E00007D017C00124813900085E004F080C6DC
:08404E00900086E004F080A35D
:014056002247
:1039BF00E4FDFC7FAEFE124802E4FDFC7F40FE12E8
:1039CF004813E4FDFC7FB0FE124813E4FDFC7F8139
:1039DF00FE124813E4FDFC7FFFFE124813E4FDFCCA
:1039EF007FA1FE124813E4FDFC7FA6FE124813E4EC
:1039FF00FDFC7FA8FE124813E4FDFC7F3FFE12483A
:103A0F0013E4FDFC7FC8FE124813E4FDFC7FD3FED8
:103A1F00124813E4FDFCFFFE124813E4FDFC7FD5B2
:103A2F00FE124813E4FDFC7F80FE124813E4FDFCF8
:103A3F007FD8FE124813E4FDFC7F05FE124813E405
:103A4F00FDFC7FD9FE124813E4FDFC7FF1FE124806
:103A5F0013E4FDFC7FDAFE124813E4FDFC7F12FE37
:103A6F00124813E4FDFC7FDBFE124813E4FDFC7FDC
:103A7F0030FE124813E4FDFC7F8DFE124813E4FD67
:103A8F00FC7F14FE124813E4FDFC7FAFFE024813C7
:1042D900900082EBF0A3EAF0A3E9F0900081EFF0FF
:1042E900C43354E0FEE42400FFEE3480FE124ABFDA
:1042F900E4900086F0900085E0FFA3E0FDC39F50A5
:104309003A900081E0C43354E0FEE42400FFEE3427
:1043190080FE7C00EF2DFFEC3EFEA3E0FBA3E0FA5C
:10432900A3E0F9900086E0F582758300123077FDED
:104339001249C5900086E004F080BA7FF47E01023C
:024349004ADD4B
:0E44870090007CEFF0A3EBF0A3EAF0A3E9F0C5
:10449500E4900081F0900080E0FFA3E0FDC39F5011
:1044A5003C90007CE0C43354E0FEE42400FFEE348D
:1044B50080FE7C00EF2DFFEC3EFE12491390007D3F
:1044C500E0FBA3E0FAA3E0F9900081E0F5827583B3
:1044D50000EF1230A4900081E004F080B87FF47EF4
:0444E50001024ADDA9
:10491300AD07AC06E4F5E275E78275E501ECF5E376
:10492300EDF5E4C2AF75E64675E6B900D2AF124CB9
:0449330024AFE222A9
:1049C500AB07AA0675E78275E502EAF5E3EBF5E4C0
:1049D500AF058FE2C2AF75E64675E6B900D2AF0204
:0249E5004C2460
:104ABF00AD07AC0675E78275E503ECF5E3EDF5E4BC
:0E4ACF00C2AF75E64675E6B900D2AF024C24C0
:0C4C2400E4F5E7F5E5F5E6F5E3F5E4223C
:104ADD00D3EF9400EE940040147D7D7C00ED1D70AD
:0D4AED00011CED4C70F7EF1F70E61E80E31A
:014AFA002299
:103AFD002032230000000000000000000000000044
:103B0D0000000000000000000000000000000000A8
:103B1D000000000000000000000000000000000098
:103B2D0000000000004100E6004100E9004100E80E
:0A3B3D00004100E7004200EA00002A
:0E4C1600C2ACC2998F993099FDC299D2AC22DE
:104824009000F4EBF0A3EAF0A3E9F0AF051DEF600C
:10483400199000F4E0FBA3E475F00112312DA9F006
:0B484400FA12305EFF124C1680E122D9
:104A260075C90175C83075CCFA75CDFF75CAFA75AA
:0F4A3600CBFF759850E4F587D2CAC2ACD2AF223D
:104A450075C90175C83075CCDC75CDFF75CADC75C7
:0F4A5500CBFF7598D0758780D2CAC2ACD2AF2282
:0C4C3000C299C29B8F993099FDC2992255
:080003008F993099FDC299228A
:074C63003098FDC298AF99E3
:014C6A002227
:074C6B003098FDAF99C298DB
:014C7200221F
:103747004164642046696E67657200202049442001
:103757006973202020202000707265737320273042
:103767002720746F2061646400506C656173652065
:1037770046696E6765723A200053756363657373B4
:1037870020656E747279210046696E676572204103
:103797006761696E2E00506C656173652070757482
:1037A700206F6E00796F75722066696E6765722E7D
:1037B7000020536561726368207375636365737373
:1037C7002000202020204944206973202020202029
:1037D7002020002053656172636820206661696C50
:1037E70065642E20004572726F722074696D65736F
:1037F7003A004641494C20454E5452592100656DC7
:1038070070747920616C6C00312E596573206F726A
:1038170020322E4E6F3F00656D707479696E6700B8
:10382700416C6C20656D7074792E00446F636B205A
:10383700206661696C75726500446F636B20207345
:1038470075636365737300010007130000000000D0
:103857001BEF01FFFFFFFF0100030100050100034C
:103867001D00210100080401000003E700F8010022
:1038770008040100000013002101000402010008F0
:103887000100040202000901000305000901000309
:093897000D00110000000000000A
:103B47004100B3004100AF104300B0303000C11056
:103B5700C10EC197C116C10DC115C10FC113C11146
:103B6700C112C114C10C4900B40100060601000BC3
:023B7700001933
:0A4C4700EF1F70011E144E70F722DB
:074A64001248ED7FE87E031C
:104A6B00AD07AC06ED1DAE0470011C4E60097F7DD9
:084A7B007E00124C4780ED2281
:0248ED00AB0717
:1048EF00E4FAEAC39B501AE4FDB2837F647E0012A0
:1048FF004C470DEDB464F27FC87E00124A6B0A80FC
:03490F00E1D2836F
:014912002282
:103F2300E490007FF075900FE590640F60757F0853
:103F33007E00124C47E590640F606875900FAF9058
:103F4300EF24F5601224FE601614601B2407701D15
:103F5300E49000AFF080169000AF7401F0800E90F3
:103F630000AF7402F080069000AF7403F07590F018
:103F7300AF90EF2490602524C0601824E0600B24E8
:103F8300F070209000AFE0F080199000AFE02404BF
:103F9300F080109000AFE02408F080079000AFE0BD
:103FA300240CF090007FE0C3648094CB5012E59022
:103FB30064F0600C7F017E00124A6BE004F080E342
:013FC30022DB
:1046D200E4900084F0A3F0900084E0FEA3E0FFC326
:1046E2009406EE64809480502074582FF5827438BA
:1046F2003EF583E493FF120003900085E004F0701E
:09470200D6900084E004F080CEA2
:01470B00228B
:10454900E490007DF0A3F01246D2E490007DF0A340
:10455900F090007DE0FEA3E0FFC3940AEE6480942E
:10456900805020744E2FF58274383EF583E493FF12
:1045790012000390007EE004F070D690007DE00404
:03458900F080CEF1
:01458C00220C
:05477000900081EFF054
:10477500E4A3F0900081E0FFA3E0C39F501A124C20
:1047850063900082E024BDF582E43400F583EFF008
:08479500900082E004F080DBDB
:01479D0022F9
:104937001246D2E4900081F0900081E0FFC3940614
:104947005011EF90385E93FF120003900081E0044E
:03495700F080E508
:01495A00223A
:06484F007F64FE124A6BBB
:104855001246D2E4900081F0900081E0FFC39407F6
:104865005011EF90388093FF120003900081E0040F
:03487500F080E5EB
:01487800221D
:10461400E490007FF090007FE0FFC394065011EF18
:1046240090385893FF12000390007FE004F080E577
:10463400E490007FF090007FE0FFC394075011EFF7
:1046440090388793FF12000390007FE004F080E528
:014654002243
:10495B001246D2E4900081F0900081E0FFC3940BEB
:10496B005011EF90386A93FF120003900081E0041E
:03497B00F080E5E4
:01497E002216
:10497F001246D2E490007FF090007FE0FFC39406D0
:10498F005011EF90388E93FF12000390007FE004D8
:03499F00F080E5C0
:0149A20022F2
:10465500E490007DF090007DE0FFC394065011EFDB
:1046650090385893FF12000390007DE004F080E538
:10467500E490007DF090007DE0FFC394065011EFBB
:1046850090389493FF12000390007DE004F080E5DC
:014695002202
:043E7900AB07AA06E3
:103E7D0090007F1231B100000000EA9000B9F0EB24
:103E8D00A3F0E4900083F090007FE0F8A3E0F9A3A5
:103E9D00E0FAA3E0FBA3E024B4F582E43400F5835B
:103EAD00E0FFE4FCFDFEEB2FFFEE3AFEED39FDECFD
:103EBD0038FC90007F1231A5900083E004F0E0B44F
:103ECD0007C590007FA3A3E0FEA3E4FFE4FDFC780B
:103EDD00081231929000BBEFF090007FE0FCA3E060
:103EED00FDA3E0FEA3E0FF9000BCEFF01246D2E48C
:103EFD00900083F0900083E0FFC39409501774B4D1
:103F0D002FF582E43400F583E0FF12000390008367
:053F1D00E004F080DF6C
:013F2200227C
:1032B000787C7C007D017BFF7A38799A7E007F03E1
:1032C0001230381248C7E49000B3F0023502123FC2
:1032D000239000B3E0FD75F06484243090007CF00E
:1032E000ED75F06484ADF0ED75F00A842430A3F040
:1032F000ED75F00A84E5F02430A3F07BFF7A37798E
:10330000479000867424F07D027F141244E97BFF0D
:103310007A3779529000867424F07D047F08124435
:10332000E990007CE0FB90008B741EF07D047F46EA
:10333000123B7A90007DE0FB90008B741EF07D04C0
:103340007F50123B7A90007EE0FB90008B741EF061
:103350007D047F5A123B7A7BFF7A37795F90008633
:103360007424F07D06E4FF1244E99000AFE0B4025B
:10337000121248C7C214C211C212C20E9000AF741A
:1033800005F0229000AFE0B4011D9000B3E0FF7E95
:1033900000BE0307BFE804E4F080069000B3E00439
:1033A000F09000AF7405F09000AFE060030234FFCE
:1033B0001248C77BFF7A3779709000867424F07DBD
:1033C00001E4FF1244E9123F239000AFE0B402028F
:1033D00080551249377F0C1247709000C6E070E6A6
:1033E00012484F7F0C1247707F01124B7B7BFF7A94
:1033F0003779809000867424F07D01E4FF1244E95F
:103400007F01124A647F01124B7B7BFF7A37798FF1
:103410009000867424F07D01E4FF1244E9123F23FA
:103420009000AFE0B4020EC214C211C212C20E74F8
:1034300005F00234FC1249377F0C1247709000C629
:10344000E070DA7FC8FE124A6B7F01124B7B7BFF74
:103450007A3779809000867424F07D01E4FF12446D
:10346000E97BFF7A3779529000867424F07D03E47B
:10347000FF1244E99000B3E075F064842430FB90BF
:10348000008B741EF07D037F46123B7A9000B3E000
:1034900075F06484E5F075F00A842430FB90008BAD
:1034A000741EF07D037F50123B7A9000B3E075F0FC
:1034B0006484E5F075F00A84E5F02430FB90008B1D
:1034C000741EF07D037F5A123B7A1246147F0C1251
:1034D000477012497F7F0C1247709000B3E0FF7E67
:1034E00000123E797F0C1247707F03124A649000ED
:1034F000B3E004F0C214C211C212C20E1248C730A7
:0B35000014099000AF7405F00232CEF9
:01350B00229D
:10350C00E490007CF0A3F0787E7C007D017BFF7A58
:10351C0038799DFE7F031230387BFF7A37799D9086
:10352C000086741EF07D01E4FF1244E97BFF7A37BC
:10353C0079AB900086741EF07D02FF1244E91249AB
:10354C00377F0C1247709000C6E0600302374012C0
:10355C00484F7F0C12477012495B7F1012477090D6
:10356C0000C6E0600302365FD2137F01124B7B7FF3
:10357C0002124B7B7BFF7A3779B8900086741EF071
:10358C007D01E4FF1244E97BFF7A3779C99000860C
:10359C00741EF07D03E4FF1244E99000B07430F027
:1035AC00A3F07B017A0079B09000857403F07F0260
:1035BC001242D97F031248ED9000C7E0FEA3E07CD5
:1035CC00002400FFEC3E90007CF0A3EFF090007C18
:1035DC00E0FEA3E0FF7D641230D8EF2430FB9000B6
:1035EC008B741EF07D037F50123B7A90007CE0FEC2
:1035FC00A3E0FF7C007D641230D87E007F0ACFCD23
:10360C00CFCECCCE1230D8EF2430FB90008B741E72
:10361C00F07D037F5A123B7A90007CE0FEA3E0FF22
:10362C007C007D641230D87E007F0ACFCDCFCECC0B
:10363C00CE1230D8ED2430FB90008B741EF07D033D
:10364C007F64123B7AC2807FB87E0B124A6BD280A9
:10365C000236F9D20F7F01124B7B7F02124B7B7B20
:10366C00FF7A3779DA900086741EF07D01E4FF1240
:10367C0044E99000B1E004F07B017A0079B090004D
:10368C00857403F07F021242D99000B1E0B4331478
:10369C00A37401F0FB7A0079B09000857403F07F7D
:1036AC00021242D97BFF7A3779EC900086741EF0B7
:1036BC007D03E4FF1244E99000B1E0FB90008B74B1
:1036CC001EF07D037F64123B7AC2807FFA7E00126B
:1036DC004A6BD2807FFA7E00124A6BC2807FFA7EE0
:1036EC0000124A6BD2807F051248EDD2AC300F2D00
:1036FC00124A457F327E00124A6BC2151248C77BB4
:10370C00FF7A3779F99000867424F07D03E4FF1278
:10371C0044E9C20F7FF47E01124A6BD2AC30131411
:10372C00124A457F327E00124A6BC215C217D20D67
:0A373C00D2ACC2133015030235258C
:013746002260
:103C4800E490007CF07BFF7A387905900086741E3A
:103C5800F07D017F141244E97BFF7A38790F9000D8
:103C680086741EF07D037F051244E99000AF740549
:103C7800F0123F239000AFE0640170781248C77BD0
:103C8800FF7A38791E900086741EF07D017F141229
:103C980044E97F2C7E01124A6BE490007CF090008E
:103CA8007CE0FFC394105022EF75F008A4FF900049
:103CB8008B741EF07B2A7D02123B7A7F647E001291
:103CC8004A6B90007CE004F080D41246557F0C12B9
:103CD80047701248C77BFF7A387927900086741E90
:103CE800F07D017F141244E97FF47E01124A6B7F54
:103CF800030248ED9000AFE064026003023C79C221
:033D080014C20ED4
:013D0B002295
:1043B800E490007CF0124A267FF47E01124A6B904A
:1043C80000C67401F01248C77BFF7A387932900032
:1043D80086741EF07D01E4FF1244E91245497F0C02
:1043E8001247709000C6E0600AC215C216124A67EA
:1043F8001248C79000C6E070207F01124B7B7BFFFC
:104408007A387940900086741EF07D01E4FF1244EA
:09441800E9D216124A671248C7E6
:014421002278
:1027CB000106011501260137014A015D01710188DE
:1027DB00019F01B801D201EE0002040507090B01AC
:1027EB0002040810204017021703180319021503DF
:1027FB0016031703170317031803190216031703FE
:10280B0018021803170315021803170318021003F5
:10281B0015031602150316031702170318031902E3
:10282B001A031B031F031F031703180319021603B5
:10283B0017031803170318031F031F0216031703AD
:10284B00180317031803200320021F031B031F6623
:10285B002003210320031F031B031F661F031B03FE
:10286B001903190315031A661A0319031503150324
:10287B001703166617041804180319031F031B0309
:10288B001F662003210320031F031B031F661F0367
:10289B001B031903190315031A661A0319031903EA
:1028AB001F031B031F001A031A031A031B031B032B
:1028BB001A03190319021703151715031603170328
:1028CB0018031704180E18031704180E18661703AD
:1028DB00180317031803200320021F031B031F6693
:1028EB002003210320031F031B031F661F041B0E62
:1028FB001B031903190315031A661A03190315038E
:10290B0015031703166617041804180319031F037E
:10291B001B031F662003210320031F031B031F66DA
:10292B001F031B031903190315031A661A03190353
:10293B0019031F031B031F00180218031A03190D99
:10294B0015031502186616021702150000000F0179
:10295B001502160217661803170215021601150247
:10296B00100215000F0115021602170217031803A8
:10297B00190215021866170319021603170316001E
:10298B00170119021B021B701A031A0119021903F2
:10299B001A031B021A0D19031700186618031902E4
:1029AB001A02190C180D170316011102110310034B
:1029BB000F0C100215001F011A01186619031A01DA
:1029CB001B021B031B031B0C1A0D190317001F0102
:1029DB001A01186619031A011002100310031A0CBE
:1029EB00180D170316000F011502160217701803A6
:1029FB0017021503150316661603160216031503A5
:102A0B00100210011101116610030F0C1A021902AA
:102A1B00160316031866180318021703160319007A
:102A2B0000001703160317011603170316031501EE
:102A3B00100315031602160D1703160315031003C7
:102A4B00100E15040F0117031603170116031703B6
:102A5B0016031501100315031602160D17031603A3
:102A6B00150310031503160117031603170116039D
:102A7B00170316031501100315031602160D170382
:102A8B00160315031003100E15040F01170319037A
:102A9B00190119031A03190317011603160316025A
:102AAB00160D1703160315031003100D150019034C
:102ABB0019031A031F031B031B031A03170D16031A
:102ACB001603160D17011703170319031A021A021F
:102ADB001003170D16031601170319031903170318
:102AEB0019021F021B031A031A0E1B0417021A03E7
:102AFB001A031A0E1B041A03190317031603170DD7
:102B0B00160317031901190319031A031F031B03D8
:102B1B001B031A03170D16031603160317011703CE
:102B2B00170319031A021A021003170D16031601C5
:102B3B00170319031903170319031F021B031A03A6
:102B4B001A0E1B0417021A031A031A0E1B0417166C
:102B5B001A031A031A0E1B041A031903170316037D
:102B6B000F021003150000001A671A041F031F033E
:102B7B001A661A031903170319031F031A161A03EC
:102B8B001F031F671F041F0219021A0319031603E1
:022B9B0019031C
:1049E700E4FDFCC3ED9FEC9E5015E4FBFA0BBB0006
:0F49F700010AEB64784A70F50DBD00010C80E4F5
:014A0600228D
:104AFB00C2839000F174FFF09000F3F0F58DF58B0D
:0E4B0B00438911D2A9C2ABC28CC28ED2AF2296
:03000B00024B198C
:104B1900C0E0C083C082B2839000F0E0F58C9000C1
:0B4B2900F2E0F58AD082D083D0E032A9
:102B9D007BFF900080E4F0A37403F0A37401F0A315
:052BAD007468F0E4FD76
:0E2BB20090007CEBF0A3EAF0A3E9F0A3EDF0B5
:102BC000E490009CF090009CE0FFC3940C40030252
:102BD0002C8890007FE0FEEF2EFFD3940B401A74F8
:102BE000F42F25E024CBF582E43427F58374019398
:102BF00025E0FFE49333FE8013EF25E024CBF5823C
:102C0000E43427F583E493FE740193FF90009CE085
:102C100025E02484F582E43400F583EEF0A3EFF0A0
:102C2000900080E0FCA3E0FD64014C702290009CC9
:102C3000E025E02484F582E43400F583C083C0827B
:102C4000E0FEA3E07802CEC313CE13D8F98026EDC0
:102C500064034C702A90009CE025E02484F582E413
:102C60003400F583C083C082E0FEA3E07802C33362
:102C7000CE33CED8F9FFD082D083EEF0A3EFF09020
:102C8000009CE004F0022BC5E49000A7F0A3F090B4
:102C9000007CE0FBA3E0FAA3E0F99000A7E0FEA32C
:102CA000E0F5828E8312307760109000A8E0240255
:102CB000F09000A7E03400F080D5E490009DF0A3F0
:102CC000F090007CE0FBA3E0FAA3E0F990009DE027
:102CD000FEA3E0F5828E831230779000A9F0E42401
:102CE00001FFE4338F82F5831230779000AAF090D1
:102CF0000082E0FCA3E0FD7E2E7FE01230D8900041
:102D00009FEEF0A3EFF090009FE0FEA3E07802CEEC
:102D1000C313CE13D8F9FF9000A5EEF0A3EFF09007
:102D200000A5E0FAA3E0FBAE027802C333CE33CEB7
:102D3000D8F9FF7C007D051230D8C3EB9FFFEA9ED7
:102D40009000A5F0A3EFF0C28CD28E9000A7E0FE19
:102D5000A3E0FFC390009EE09F90009DE09E400393
:102D6000022F659000A9E0FF75F00A849000ABE5A2
:102D7000F0F0EF75F00A8475F00A84ADF09000A9C8
:102D8000E075F06484FF9000ABE0FE9027E2932FA3
:102D900025E02484F582E43400F583E0FAA3E0FB27
:102DA000EE6055EDB4010FEBAE027802CEC313CE48
:102DB00013D8F9FBAA06EDB4030FEBAE027802C3F9
:102DC00033CE33CED8F9FBAA06E4F9F87F507EC3A0
:102DD000FDFC12458DE47B0AFAF9F8123143C3E495
:102DE0009FFFE49EAD07FF9000F0F0AE059000F26B
:102DF000EEF08F8C240CF58A9000AAE0FF75F00AA3
:102E000084E5F09027EA93FE9000ACF0EF75F00AAD
:102E10008475F00A84A3E5F0F09000AAE075F064F0
:102E2000849000AEF0EEFD7C0090009FE0FEA3E0F9
:102E3000FF1230D8AB07AA069000AEE0B4010BEA4F
:102E4000C313FEEB132BFBEE3AFA9000ADE0FF64E8
:102E5000016049EF70369000ACE0D39404501390B9
:102E600000A5E0FEA3E0FFC3EB9FFFEA9E9000A158
:102E70008024EBAE027802C333CE33CED8F9FF7C88
:102E8000007D051230D89000A1EE800AEAC313FF3E
:102E9000EB139000A1CFF0A3EFF080089000A1EA1F
:102EA000F0A3EBF09000ABE0F970069000A1F0A366
:102EB000F09000A1E0FEA3E0FFC3EB9FFFEA9EA31A
:102EC000F0A3EFF0E9602DD28C9000A1A3E0900078
:102ED0009CF090009CE0D394004019308FFD90004E
:102EE000F1E0F58D9000F3E0F58BC28F90009CE04F
:102EF00014F080DE9000A3E0FEA3E0FF4E602BC242
:102F00008CC28390009CEFF090009CE0D394004032
:102F100019308FFD9000F1E0F58D9000F3E0F58B16
:102F2000C28F90009CE014F080DE90009EE02402AE
:102F3000F090009DE03400F090007CE0FBA3E0FA0C
:102F4000A3E0F990009DE0FEA3E0FFF5828E8312DE
:102F500030779000A9F08F828E83A3123077900093
:072F6000AAF0022D4BC28311
:012F67002247
:104BC800124AFB7A2779F1122B9D7FF47E01024964
:014BD800E7F5
:104BD900124AFB7A297959122B9D7FF47E010249E9
:014BE900E7E4
:104B9100124AFB7BFF7A2A792D122B9F7FF47E012B
:034BA1000249E7DF
:104BA400124AFB7BFF7A2B7973122B9F7FF47E01D1
:034BB4000249E7CC
:030000000240E3D8
:0C40E300787FE4F6D8FD75815402412A74
:102F6800E709F608DFFA8046E709F208DFFA803E4B
:102F780088828C83E709F0A3DFFA8032E309F60838
:102F8800DFFA8078E309F208DFFA807088828C83A0
:102F9800E309F0A3DFFA806489828A83E0A3F60854
:102FA800DFFA805889828A83E0A3F208DFFA804C2E
:102FB80080D280FA80C680D4806980F28033801005
:102FC80080A680EA809A80A880DA80E280CA80336E
:102FD80089828A83ECFAE493A3C8C582C8CCC583E6
:102FE800CCF0A3C8C582C8CCC583CCDFE9DEE780B6
:102FF8000D89828A83E493A3F608DFF9ECFAA9F035
:10300800EDFB2289828A83ECFAE0A3C8C582C8CC8A
:10301800C583CCF0A3C8C582C8CCC583CCDFEADEA3
:10302800E880DB89828A83E493A3F208DFF980CC05
:1030380088F0EF60010E4E60C388F0ED2402B404FE
:103048000050B9F582EB2402B4040050AF232345A5
:063058008223902FB873E3
:10305E00BB010689828A83E0225002E722BBFE0270
:09306E00E32289828A83E49322A3
:10307700BB010CE58229F582E5833AF583E022500E
:1030870006E92582F8E622BBFE06E92582F8E22258
:0D309700E58229F582E5833AF583E4932272
:1030A400F8BB010DE58229F582E5833AF583E8F062
:1030B400225006E92582C8F622BBFE05E92582C80E
:0230C400F222F6
:1030C600EF8DF0A4A8F0CF8CF0A428CE8DF0A42E1E
:0230D600FE22D8
:1030D800BC000BBE0029EF8DF084FFADF022E4CCDC
:1030E800F875F008EF2FFFEE33FEEC33FCEE9DECA5
:1030F800984005FCEE9DFE0FD5F0E9E4CEFD22EDEB
:10310800F8F5F0EE8420D21CFEADF075F008EF2F34
:10311800FFED33FD4007985006D5F0F222C398FD25
:053128000FD5F0EA22C2
:10312D00A3F8E0C5F025F0F0E58215827002158355
:06313D00E0C838F0E822B2
:10314300E88FF0A4CC8BF0A42CFCE98EF0A42CFC2B
:103153008AF0EDA42CFCEA8EF0A4CDA8F08BF0A4A9
:103163002DCC3825F0FDE98FF0A42CCD35F0FCEB08
:103173008EF0A4FEA9F0EB8FF0A4CFC5F02ECD39CD
:0F318300FEE43CFCEAA42DCE35F0FDE43CFC223A
:10458D00C2D5E830E70FB2D5E4C39BFBE49AFAE459
:10459D0099F9E498F8EC30E717B2D51245C3123209
:1045AD001EE4C39BFBE49AFAE499F9E498F88003BE
:1045BD0012321E30D50DE4C39FFFE49EFEE49DFD37
:0445CD00E49CFC224C
:10319200E8600FECC313FCED13FDEE13FEEF13FF1B
:0331A200D8F1223F
:0C31A500ECF0A3EDF0A3EEF0A3EFF0229D
:1031B100A8828583F0D083D0821231C81231C8121F
:1031C10031C81231C8E473E493A3C583C5F0C58344
:1031D100C8C582C8F0A3C583C5F0C583C8C582C868
:0131E10022CB
:10000E00E4FFFE12305E600C0FEF70010E09E97016
:05001E00F20A80EF2250
:1040EF00024267E493A3F8E493A34003F68001F23E
:1040FF0008DFF48029E493A3F85407240CC8C333D2
:10410F00C4540F4420C8834004F456800146F6DFA0
:10411F00E4800B0102040810204080903A9FE47E57
:10412F00019360BCA3FF543F30E509541FFEE49395
:10413F00A360010ECF54C025E060A840B8E493A35C
:10414F00FAE493A3F8E493A3C8C582C8CAC583CA87
:10415F00F0A3C8C582C8CAC583CADFE9DEE780BE3F
:013B7900004B
:1031E20075F008758200EF2FFFEE33FECD33CDCCA4
:1031F20033CCC58233C5829BED9AEC99E582984027
:103202000CF582EE9BFEED9AFDEC99FC0FD5F0D603
:10321200E4CEFBE4CDFAE4CCF9A88222B800C1B92D
:103222000059BA002DEC8BF084CFCECDFCE5F0CB6B
:10323200F97818EF2FFFEE33FEED33FDEC33FCEBA4
:1032420033FB10D703994004EB99FB0FD8E5E4F95F
:10325200FA227818EF2FFFEE33FEED33FDEC33FC4C
:10326200C933C910D7059BE99A4007EC9BFCE99A40
:10327200F90FD8E0E4C9FAE4CCFB2275F010EF2F85
:10328200FFEE33FEED33FDCC33CCC833C810D70785
:103292009BEC9AE899400AED9BFDEC9AFCE899F8C0
:0E32A2000FD5F0DAE4CDFBE4CCFAE4C8F92253
:00000001FF
