:1029A600446174653A0054696D653A00636C6F63FF
:1029B6006B31206973206F6E2100323000696E69B9
:1029C60074206661696C656421002074656D7065AC
:1029D6007261747572653A00636C6F636B317C006B
:0329E6007C200052
:101BBD004600E374696D653A004D00E974656D701A
:101BCD00657261747572653A004D00B03030303019
:101BDD003030303030303030004A00D90000000055
:101BED000000000000004B00BE323030302E30318E
:101BFD002E3031004900D030303A30303A3030009C
:101C0D004700FC787878787878004700A97878785C
:101C1D00787878004200F700004100F9004100F6A5
:101C2D00004100FA004100FB00C10DC10CC110C103
:071C3D000EC10BC10AC10F2B
:0B2FC200EF1FAC0670011E4C70F622E1
:042F54007FE87E0391
:0B2F5800EF1FAC0670011E4C70F6224B
:042CBA007F647E00B5
:102CBE00EF1FAA0670011E4A6013E4FCFDC3ED94DB
:0D2CCE007DEC940050EA0DBD00010C80F07B
:012CDB0022D6
:022D1F00AD07FE
:102D2100E4FBEBC39D5015C2907F887E13122F5890
:0C2D3100D2907FB87E0B122F580B80E66A
:012D3D002273
:10213100122E2F9001ACE0FDC4540F24309000C04A
:10214100F0ED540F2430A3F09001AAE0FDC4540F28
:1021510024309000C3F0ED540F2430A3F09001A976
:10216100E0FDC4540F24309000C6F0ED540F24302C
:10217100A3F09001A8E0FDC4540F24309000D0F0EA
:10218100ED540F2430A3F09001A7E0FDC4540F24B7
:10219100309000D3F0ED540F2430A3F09001A6E06D
:1021A100FDC4540F24309000D6F0ED540F2430A319
:1021B100F09000C9E0FF9000D0E06F702D9000CA50
:1021C100E0FF9000D1E0B507219000CBE0FF900047
:1021D100D3E0B507159000CCE0FF9000D4E0B5073F
:0B21E100099000CDE0B40102D20A22F8
:10260E00AB07AA067C277D101215257E037FE8CF27
:10261E00CDCFCECCCE121525EF2430FFE43E900068
:10262E00D9F0A3EFF07C037DE8AF03AE02121525BF
:10263E007E007F64CFCDCFCECCCE121525EF2430C9
:10264E00FFE43EA3F0A3EFF07C007D64AF03AE0287
:10265E001215257E007F0ACFCDCFCECCCE121525FA
:10266E00EF2430FFE43EA3F0A3EFF0AE02AF037C05
:10267E00007D0A121525ED2430FEE43CA3F0A3CE16
:02268E00F02238
:102A90007B017A0079C99001087407F0E4FF1228DD
:102AA000517B017A00798A9001087408F07F011245
:102AB00028517B017A0079089001087480F07F0228
:032AC00002285198
:100867009000BDE0FF600D64016009EF6402600461
:10087700EFB403087F01122E68122F549000BDE0D9
:10088700FFC394045003020CDDEFD3940740030227
:100897000CDD201003020CDDEF24FB70030209E5D9
:1008A700147003020B08147003020B102403600377
:1008B700020B1E9000F6E024B0F582E43400F583C5
:1008C700E0FFC394305003020B1EEFD3943940036B
:1008D700020B1E9000F6E0FF24B0F582E43400F529
:1008E70083E004F0EFC394004006EFD39405400D76
:1008F7009000F6E0FF64096004EFB40B209000F667
:10090700E0FF24B0F582E43400F583E0B43A0E74D6
:10091700B02FF582E43400F583E024F6F09000F67A
:10092700E0B4061E24B0F582E43400F583E0B43366
:10093700119000F6E024B0F582E43400F583E0245A
:10094700FDF09000F6E0FFB407269000B6E0B43261
:100957001F74B02FF582E43400F583E0B4341190AE
:1009670000F6E024B0F582E43400F583E024FCF0DF
:100977009000F6E0FFB407089000B6E06431600726
:100987009000B6E0B4301F74B02FF582E43400F560
:1009970083E0B43A119000F6E024B0F582E4340025
:1009A700F583E024F6F09000F6E0FF64086008EFB6
:1009B700640A6003020B1E9000F6E0FF24B0F58284
:1009C700E43400F583E064366003020B1E74B02F35
:1009D700F582E43400F583E024FAF0020B1E900060
:1009E700F6E024B0F582E43400F583E0FFC39430E9
:1009F7005003020B1EEFD394394003020B1E9000E5
:100A0700F6E0FF24B0F582E43400F583E014F0EF5C
:100A1700C394004006EFD39405400D9000F6E0FF25
:100A270064096004EFB40B209000F6E0FF24B0F5F2
:100A370082E43400F583E0B42F0E74B02FF582E41E
:100A47003400F583E0240AF09000F6E0B4061E2493
:100A5700B0F582E43400F583E0B42F119000F6E09E
:100A670024B0F582E43400F583E02403F09000F627
:100A7700E0B407089000B6E0643160079000B6E084
:100A8700B430209000F6E0FF24B0F582E43400F59E
:100A970083E0B42F0E74B02FF582E43400F583E0C1
:100AA700240AF09000F6E0FFB407269000B6E0B401
:100AB700321F74B02FF582E43400F583E0B42F11B0
:100AC7009000F6E024B0F582E43400F583E02404D6
:100AD700F09000F6E0FF64086005EF640A70389054
:100AE70000F6E0FF24B0F582E43400F583E0B42F8C
:100AF7002674B02FF582E43400F583E02406F080F5
:100B0700169000F6E004F0800E9000F6E070028088
:100B1700069000F6E014F09000F6E0FFC39406504C
:100B270019E0FE24B0F582E43400F583E0FD74FC9F
:100B37002EF582E43400F583EDF0EFC39406401CF4
:100B47009000F6E0FF24B0F582E43400F583E0FE80
:100B570074A32FF582E43400F583EEF09000F6E0FD
:100B6700640C6003020CCDF09000FAF09000FAE0FC
:100B7700FFC3940C501674B02FF582E43400F5834C
:100B8700E024D0F09000FAE004F080E09000B0E0BC
:100B9700FB75F00AA4FFA3E0FA7C002FFFEC35F009
:100BA700FE7D0A1214D0EF75F006A4FFEB75F00A6C
:100BB700A4FEEA2E2F9001ACF09000B2E0FB75F096
:100BC7000AA4FFA3E0FA7C002FFFEC35F0FE7D0AB4
:100BD7001214D0EF75F006A4FFEB75F00AA4FEEA35
:100BE7002E2F9001AAF09000B4E0FB75F00AA4FF45
:100BF700A3E0FA7C002FFFEC35F0FE7D0A1214D03B
:100C0700EF75F006A4FFEB75F00AA4FEEA2E2F900D
:100C170001A9F09000B6E0FB75F00AA4FFA3E0FA83
:100C27007C002FFFEC35F0FE7D0A1214D0EF75F033
:100C370006A4FFEB75F00AA4FEEA2E2F9001A8F098
:100C47009000B8E0FB75F00AA4FFA3E0FA7C002F40
:100C5700FFEC35F0FE7D0A1214D0EF75F006A4FF05
:100C6700EB75F00AA4FEEA2E2F9001A7F09000BAC8
:100C7700E0FB75F00AA4FFA3E0FA7C002FFFEC3538
:100C8700F0FE7D0A1214D0EF75F006A4FFEB75F0A5
:100C97000AA4FEEA2E2F9001A6F0E49000FAF09045
:100CA70000FAE0FFC3940C501674B02FF582E434B9
:100CB70000F583E02430F09000FAE004F080E012C1
:100CC7002BD4C20DC2107F01122E68122F547F0C35
:100CD700122E68122F54200B030210A29000BDE0C1
:100CE70024FB7003020EB214700302105E1470032B
:100CF700021066240360030210749000F6E024C912
:100D0700F582E43400F583E0FFC394304019EFD354
:100D1700943950139000F6E0B4030C24C9F582E42B
:100D27003400F583E004F09000F6E0FF24C9F58273
:100D3700E43400F583E0B43A0E74C92FF582E43445
:100D470000F583E024F6F09000F6E0FF640160030D
:100D5700020E019000C9E0FE64306005EE64317058
:100D67004774C92FF582E43400F583E0FFC394305C
:100D77004016EFD3943950109000F6E024C9F5825D
:100D8700E43400F583E004F09000F6E0FF24C9F5B1
:100D970082E43400F583E0B43A0E74C92FF582E497
:100DA7003400F583E024F6F09000C9E06432704A1D
:100DB7009000F6E024C9F582E43400F583E0FFC330
:100DC70094304016EFD3943350109000F6E024C9C6
:100DD700F582E43400F583E004F09000F6E0FF24A8
:100DE700C9F582E43400F583E0B4340E74C92FF5F5
:100DF70082E43400F583E024FCF09000F6E0FF7015
:100E07004774C92FF582E43400F583E0FFC39430BB
:100E17004016EFD3943250109000F6E024C9F582C3
:100E2700E43400F583E004F09000F6E0FF24C9F510
:100E370082E43400F583E0B4330E74C92FF582E4FD
:100E47003400F583E024FDF09000F6E0FF640270C3
:100E57004774C92FF582E43400F583E0FFC394306B
:100E67004016EFD3943550109000F6E024C9F58270
:100E7700E43400F583E004F09000F6E0FF24C9F5C0
:100E870082E43400F583E0B4360E74C92FF582E4AA
:100E97003400F583E024FAF09000F6E06404600380
:100EA7000210749000CD04F00210749000F6E02454
:100EB700C9F582E43400F583E0FFC394304019EFAD
:100EC700D3943950139000F6E0B4030C24C9F5828B
:100ED700E43400F583E014F09000F6E0FF24C9F550
:100EE70082E43400F583E0B42F0E74C92FF582E451
:100EF7003400F583E0240AF09000F6E0FF64016017
:100F070003020FB29000C9E0FE64316005EE643061
:100F1700704774C92FF582E43400F583E0FFC3946A
:100F2700304016EFD3943950109000F6E024C9F5FD
:100F370082E43400F583E014F09000F6E0FF24C962
:100F4700F582E43400F583E0B42F0E74C92FF582DF
:100F5700E43400F583E0240AF09000C9E0643270BD
:100F67004A9000F6E024C9F582E43400F583E0FFF7
:100F7700C394304016EFD3943350109000F6E0241A
:100F8700C9F582E43400F583E014F09000F6E0FF41
:100F970024C9F582E43400F583E0B42F0E74C92F19
:100FA700F582E43400F583E02404F09000F6E0FFD6
:100FB700704774C92FF582E43400F583E0FFC394CA
:100FC700304016EFD3943250109000F6E024C9F564
:100FD70082E43400F583E014F09000F6E0FF24C9C2
:100FE700F582E43400F583E0B42F0E74C92FF5823F
:100FF700E43400F583E02403F09000F6E0FF640298
:10100700704774C92FF582E43400F583E0FFC39479
:10101700304016EFD3943550109000F6E024C9F510
:1010270082E43400F583E014F09000F6E0FF24C971
:10103700F582E43400F583E0B42F0E74C92FF582EE
:10104700E43400F583E02406F09000F6E0B4041DD4
:10105700E49000CDF080169000F6E004F0800E904A
:1010670000F6E0700280069000F6E014F09000F6BB
:10107700E0B40517C20DC20BE4F07B017A0079C911
:101087009001097405F0E4FF1227067F01122E680C
:0C109700122F547F0C122E68122F5422CE
:101EBF00E4900104F0208037122F542080317F01ED
:101ECF00122D1FE49000BDF0300D04E02404F0202B
:101EDF000D04D210D20D120867900104E0C3648084
:101EEF0094C6500B208008122F54E004F080EA2093
:101EFF008138122F542081327F01122D1F9000BD87
:101F0F007401F0300D04E02404F0200D04D20ED241
:101F1F000D120867900104E0C3648094C6500B2033
:101F2F008108122F54E004F080EA208238122F54D7
:101F3F002082327F01122D1F9000BD7402F0300DF0
:101F4F0004E02404F0200D04D208D20D120867908B
:101F5F000104E0C3648094C6500B208208122F54F2
:101F6F00E004F080EA208338122F542083327F015F
:101F7F00122D1F9000BD7403F0300D04E02404F007
:101F8F00200D04D20BD20D120867900104E0C36438
:101F9F008094C6500B208308122F54E004F080EA7F
:011FAF00220F
:1015F100200D5A7BFF7A2979A67D017F01122BFEEE
:101601007BFF7A2979AC7D027F01122BFE7B017A67
:101611000079BE7D017F06122BFE7B017A0079D015
:101621007D027F07122BFE300A23C20A7F01122E90
:1016310068122CBA7BFF7A2979B27D017F01122BC6
:10164100FE7F02122F8E7F887E13122CBE200D0387
:101651000219AB3008030219AB2010030218137BE7
:10166100FF7A2979C07D017F06122BFE7BFF7A2943
:1016710079A67D017F01122BFE7BFF7A2979AC7D52
:10168100027F01122BFE9000FCE0FB7D017F08121E
:101691002F1F9000FDE0FB7D017F09122F1F7B2E84
:1016A1007D017F0A122F1F9000FEE0FB7D017F0B61
:1016B100122F1F9000FFE0FB7D017F0C122F1F7B7B
:1016C1002E7D017F0D122F1F900100E0FB7D017F18
:1016D1000E122F1F900101E0FB7D017F0F122F1FC2
:1016E1009000A9E0FB7D027F07122F1F9000AAE066
:1016F100FB7D027F08122F1F7B3A7D027F09122F8B
:101701001F9000ABE0FB7D027F0A122F1F9000ACFF
:10171100E0FB7D027F0B122F1F7B3A7D027F0C12B3
:101721002F1F9000ADE0FB7D027F0D122F1F900057
:10173100AEE0FB7D027F0E122F1FE49000F7F0A3B5
:10174100F02080030219AB2081030219AB20820330
:101751000219AB2083030219AB9000F6E0FFC3949A
:10176100004012EFD39401500CEF2488FF122E6831
:101771007F0F122E689000F6E0FFC394024012EF33
:10178100D39403500CEF2489FF122E687F0F122E81
:10179100689000F6E0FFC394044012EFD394055023
:1017A1000CEF248AFF122E687F0F122E689000F62C
:1017B100E0FFC394064012EFD39407500CEF24C10D
:1017C100FF122E687F0F122E689000F6E0FFC3947F
:1017D100084012EFD39409500CEF24C2FF122E6877
:1017E1007F0F122E689000F6E0FFC3940A4012EFBB
:1017F100D3940B500CEF24C3FF122E687F0F122ECF
:10180100689000F8E004F070069000F7E004F00240
:101811001742300E7B200F0F7BFF7A2979C37D01A0
:101821007F01122BFE805912277812260E7BFF7A38
:101831002979D07D017F01122BFE9000D9A3E0FB15
:101841007D027F02122F1F9000DBA3E0FB7D027F50
:1018510003122F1F9000DDA3E0FB7D027F04122FF6
:101861001F7B2E7D027F05122F1F9000DFA3E0FB5F
:101871007D027F06122F1F7B437D027F07122F1FE0
:101881007FB87E0B122DD5C20EC20D7F01022E68CC
:10189100200B0302197D7BFF7A2979DE7D017F010F
:1018A100122BFE9000C9E0FB7D017F08122F1F90D3
:1018B10000CAE0FB7D017F09122F1F7B3A7D017F6A
:1018C1000A122F1F9000CBE0FB7D017F0B122F1F0F
:1018D1009000CCE0FB7D017F0C122F1F7BFF7A294A
:1018E10079E67D017F0D122BFE9000CDE0B401045D
:1018F1007B3180089000CDE070097B307D017F0F46
:10190100122F1FE49000F7F0A3F02080030219AB1F
:101911002081030219AB2082030219AB2083030249
:1019210019AB9000F6E0FFC394004012EFD394018D
:10193100500CEF2488FF122E687F0F122E68900042
:10194100F6E0FFC394024012EFD39403500CEF244E
:1019510089FF122E687F0F122E689000F6E0B40402
:101961000B248BFF122E687F0F122E689000F8E077
:1019710004F070969000F7E004F0808E300A2B7F1F
:1019810001122E68122CBA7BFF7A2979B27D017F70
:1019910001122BFE7F02122F8E7F607EEA122DD55F
:0B19A100C20DC20BC20EC210C20A220F
:030023000228B3FD
:1028B300C0E0C0F0C083C082C0D075D000C000C0EB
:0D28C30001C002C003C004C005C006C0076C
:1028D000AF99309818EFB40112D208D20DC210C2CD
:0D28E0000EC20B7F01122E68122CBAC29896
:1028ED00D007D006D005D004D003D002D001D0003F
:0B28FD00D0D0D082D083D0F0D0E032E9
:1029E900C2AF122B53122CFE122A90122F9C122BBB
:1029F9007EEF24FF920F122778D2AFD2AC121EBFFE
:102A090030080E9000957404F0121FB01200268051
:092A1900EF1221311215F180E4E5
:101D73002D2D2D636865636B20636172642D2D2D9A
:101D8300007761697420666F7220636172642E2E1E
:101D93002E0052656164207375636365737321005C
:101DA30049443A00436F6D706172652073756363D4
:101DB300657373210057656C636F6D6520486F6DA4
:101DC30065210043617264206E6F742065786973C6
:101DD3007421007C53455454494E475320454E5477
:101DE30052597C007072657373203C206F72203EE1
:101DF30000656E7465722070617373776F72643AF5
:101E030000656E74657220746F206D616E61676525
:101E1300007375636365737366756C6C7921007009
:101E2300617373776F7264206572726F7221007CC5
:101E330052433532322053455454494E47537C0064
:101E43006E6577636172643C2072657365743E00EE
:101E5300736574206E6577206361726400636865DF
:101E6300636B2077616974696E672E2E2E0073751C
:101E73006363657373207265636F726465642100C5
:101E83004361726420697320657869737421006605
:101E930061696C20736176696E672E00696E206ECE
:101EA30065772070617373776F72643A007265733C
:0C1EB30065742070617373776F726400B7
:101C440041009200410095044400A50000000044B6
:101C54000096FFFFFFFF6080000845353837444396
:101C640033303737394141303630463935433931ED
:101C7400443544394434383644330000000000000D
:101C84000000000000000000000000000000000050
:101C94000000000000000000000000000000000040
:101CA4000000000000000000000000000000000030
:101CB4000000000000000000000000000000000020
:101CC4000000000000000000000000000000000010
:101CD4000000000000000000000048009A0000001E
:101CE40000000000004100A3004100A4004100A244
:101CF4000048000030303030303030304200930043
:101D040000C106C103C100C104C109C105C108C1A4
:051D140001C107C1023E
:032FF100C2902269
:032FF400D2902256
:0C2FAA00C2907FF47E01122E11D2902202
:102D5D00C2907FFA7E00122E11D2907FFA7E001261
:0E2D6D002E11C2907FFA7E00122E11D29022FB
:0E2F7200E49001C1F09001C3F09001C2F02282
:0A2FD8007FE87E03122E11022FAADB
:032FF700022D5D4B
:101FB000E4900104F020802B7F05FE122E1120807A
:101FC00022E4900095F0900104E0C3648094C65030
:101FD0001220800F7F057E00122E11900104E00474
:101FE000F080E320812D7F057E00122E11208123B9
:101FF0009000957401F0900104E0C3648094C65091
:102000001220810F7F057E00122E11900104E00442
:10201000F080E320822D7F057E00122E1120822386
:102020009000957403F0900104E0C3648094C6505E
:102030001220820F7F057E00122E11900104E00411
:10204000F080E320832D7F057E00122E1120832354
:102050009000957402F0900104E0C3648094C6502F
:102060001220830F7F057E00122E11900104E004E0
:03207000F080E31A
:01207300224A
:1021EC007B017A0079887F26122502EF60117B0132
:1021FC007A0079887F26122502EF60037F00227B0C
:10220C00017A0079A5122074EF60099000A4740182
:10221C00F07F00229000A37401F0E4FF74A52FF569
:10222C0082E43400F583E0C4540FFED394094005D6
:10223C00EE2437801074A52FF582E43400F583E08A
:10224C00C4540F2430FEEF25E0249AF582E43400C8
:10225C00F583EEF074A52FF582E43400F583E05499
:10226C000FFED394094005EE2437800F74A52FF58B
:10227C0082E43400F583E0540F2430FEEF25E02493
:10228C009BF582E43400F583EEF00FEF6404708C60
:02229C007F01C0
:01229E00221D
:10269000C211C212E4FF7B017A007908122F0A7C72
:1026A000007D08121525AE07E4FFEFC39E5056E4E7
:1026B000FDEDB40702D21275F008EFA42DF582E407
:1026C00035F0F583E5822408F582E5833400F5834F
:1026D000E0FC749A2DF582E43400F583E06C60042C
:1026E000D21180050DEDB408C8201107301204C2C4
:1026F00012D32230110CEFB50602C322C211C2124E
:05270000C2900F80A54E
:0127050022B1
:100026002008030200EF200D030200EF3007030251
:1000360000EF3000030200EF3005030200EF30044A
:10004600030200EF3009030200EFD2062006030286
:1000560000EF3003030200EF7BFF7A1D79737D0109
:10006600E4FF122BFE7BFF7A1D79847D02E4FF12EA
:100076002BFE900095E07022C203C206C200C204A5
:10008600C209C205C208C20D9000957404F07F0132
:10009600122E687F647E00122E111221ECEF604949
:1000A6001221EC7F01122E687F327E00122E117B08
:1000B600FF7A1D79957D017F01122BFE7BFF7A1D4C
:1000C60079A37D027F01122BFE7B017A00799A7D4E
:1000D600027F04122BFE122FD87F01122E687F6436
:1000E6007E00122E11C206D20730077C122690928D
:1000F600037FE87E03122E117F01122E687F327E67
:1001060000122E11300336C2077BFF7A1D79A77DB8
:1001160001E4FF122BFE7BFF7A1D79B87D02E4FF16
:10012600122BFE7F01122F8E7FE87E03122E117F87
:1001360001122E687F327E00122E11802BC2077F9D
:10014600327E00122E117BFF7A1D79C67D017F015A
:10015600122BFE7FE87E03122E117F01122E687F7E
:10016600647E00122E11D2063003677BFF7A1D795A
:10017600D67D01E4FF122BFE7BFF7A1D79E77D0217
:100186007F02122BFE900095E0602524FE600D1480
:1001960060102402703CC203D2068024C203D2003F
:1001A600801EC203C2059000957404F0D20080162A
:1001B600C203C206C200C204C209C205C208C20DF9
:1001C6009000957404F07F01122E687F647E001201
:1001D6002E1120000302046B900095E01460431476
:1001E600700302026F14606D2403600302027B90A9
:1001F60000A2E0FF2400F582E43400F583E004F079
:1002060074002FF582E43400F583E0643A7066905A
:1002160000A2E02400F582E43400F583E024F6F041
:1002260080539000A2E0FF2400F582E43400F583B9
:10023600E014F074002FF582E43400F583E0642FB7
:1002460070339000A2E02400F582E43400F583E0E8
:10025600240AF080209000A2E0FFC394085005E035
:1002660004F08011EF6408600C9000A2E0D39400C3
:100276004003E014F07BFF7A1D79F47D017F0112C3
:100286002BFE900000E0FB7D027F01122F1F9000E5
:1002960001E0FB7D027F02122F1F900002E0FB7D32
:1002A600027F03122F1F900003E0FB7D027F0412E2
:1002B6002F1F900004E0FB7D027F05122F1F900088
:1002C60005E0FB7D027F06122F1F900006E0FB7DF6
:1002D600027F07122F1F900007E0FB7D027F0812A6
:1002E6002F1FE4900093F0A3F03080353081323038
:1002F600822F30832C9000A2E0FFC394004012EFBF
:10030600D39407500CEF24C1FF122E687F0F122ED4
:1003160068900094E004F070D0900093E004F080C0
:10032600C89000A2E06408600302046B7F0C122EE2
:10033600687F647E00122E1190008AE0FF90000014
:10034600E06F60030203FB90008BE0FF900001E08A
:100356006F60030203FB90008CE0FF900002E06FE9
:1003660060030203FB90008DE0FF900003E06F60E6
:10037600030203FB90008EE0FF900004E06F7075AF
:1003860090008FE0FF900005E06F7069900090E0AC
:10039600FF900006E06F705D900091E0FF9000070F
:1003A600E06F70519000A304F0D205C200FF122E38
:1003B600687F647E00122E117BFF7A1E79047D0110
:1003C600E4FF122BFE7BFF7A1E79147D02E4FF12F6
:1003D6002BFE7FE87E03122E117F01122E687F64AA
:1003E6007E00122E119000957404F0122FF4E49002
:1003F60000A2F08070E49000A2F0900092F09000CD
:1004060092E0FFC39408501574002FF582E434007F
:10041600F5837430F0900092E004F080E17F0112E1
:100426002E687F647E00122E117BFF7A1E79227D54
:1004360001E4FF122BFE7FE87E03122E117F0C12C1
:100446002E687F647E00122E119000957404F0D2FF
:1004560003C2007F01122E687F647E00122E119067
:1004660000A47401F030055B7BFF7A1E79327D01B2
:10047600E4FF122BFE7BFF7A1E79437D02E4FF1216
:100486002BFE900095E0601D24FE600D1460102484
:10049600027030C205D2038018C205D2048012C28F
:1004A60005D209800CC203C206C200C204C209C238
:1004B600059000957404F07F01122E687F647E001B
:1004C600122E112004030206427BFF7A1E79537D09
:1004D600017F01122BFE7BFF7A1E79607D027F0170
:1004E600122BFE1221ECEF70030206427F01122E40
:1004F600687F647E00122E117BFF7A1D79957D013F
:100506007F01122BFE7BFF7A1D79A37D027F0112EC
:100516002BFE7B017A00799A7D027F05122BFE7FE6
:10052600D07E07122E111226909202300203020587
:10053600F97F01122E687F647E00122E117BFF7AEE
:100546001E79717D01E4FF122BFE7BFF7A1D79A3D4
:100556007D027F01122BFE7B017A00799A7D027F54
:1005660005122BFE7FD07E07122E117B017A0079B1
:1005760008122F0A900092EFF0E4900104F07B013C
:100586007A007908122F0AEF2408FFE43EFE900055
:1005960092E0FDC39FEE6480F87480985029900124
:1005A60004E0249AF582E43400F583E0FF74082D14
:1005B600F582E43400F583EFF0900092E004F090C9
:1005C6000104E004F080B77B017A00790890010904
:1005D6007480F07F021227069000957404F0C2041E
:1005E600D2057F01122E687F647E00122E119000C4
:1005F600A380467F01122E687F647E00122E117B37
:10060600FF7A1E79837D017F01122BFE7BFF7A1E06
:1006160079927D027F01122BFE7FD07E07122E116A
:100626009000957404F0C204D2057F01122E687FF3
:10063600647E00122E119000A47401F020090302BA
:100646000850900095E01460431470030206D91414
:10065600606D240360030206E59000A2E0FF24001B
:10066600F582E43400F583E004F074002FF582E4AB
:100676003400F583E0643A70669000A2E02400F549
:1006860082E43400F583E024F6F080539000A2E083
:10069600FF2400F582E43400F583E014F074002FA3
:1006A600F582E43400F583E0642F70339000A2E015
:1006B6002400F582E43400F583E0240AF0802090DB
:1006C60000A2E0FFC394085005E004F08011EF6437
:1006D60008600C9000A2E0D394004003E014F07B85
:1006E600FF7A1E799F7D017F01122BFE900000E0AC
:1006F600FB7D027F01122F1F900001E0FB7D027F30
:1007060002122F1F900002E0FB7D027F03122F1FB3
:10071600900003E0FB7D027F04122F1F900004E08F
:10072600FB7D027F05122F1F900005E0FB7D027FF7
:1007360006122F1F900006E0FB7D027F07122F1F77
:10074600900007E0FB7D027F08122F1FE4900093C4
:10075600F0A3F030803C30813930823630833390DC
:1007660000A2E0FFC394004019EFD394075013EFA3
:1007760024C1FF122E687F0F122E687F057E00129D
:100786002E11900094E004F070C9900093E004F0FC
:1007960080C19000A2E0640860030208507B017AE1
:1007A6000079009001097408F07F01122706E49091
:1007B6000092F0900092E0FF2400F582E43400F508
:1007C60083E0FE748A2FF582E43400F583EEF09020
:1007D6000092E004F0E0B408DAE49000A2F09000A1
:1007E60092F0900092E0FFC39408501574002FF524
:1007F60082E43400F5837430F0900092E004F080D7
:10080600E1C209D2057F01122E687F647E00122E96
:10081600117F0C122E687F647E00122E117BFF7AE8
:100826001E79B07D01E4FF122BFE7BFF7A1E791440
:100836007D02E4FF122BFE7FD07E07122E117F0170
:10084600122E687F647E00122E119000A3E06005D0
:10085600E4F0122FD89000A4E06005E4F0122FF720
:01086600226F
:0E2F800081838587898B8D80828486888A8CE8
:0A1D19004701A600000000000000D2
:102A2200C2B500C2B600D2B500E4FEEF1392B4EF15
:102A3200C313FFD2B600C2B6000EEEB408EDE4FE38
:102A4200ED1392B4EDC313FDD2B600C2B6000EEE82
:062A5200B408EDC2B5005E
:012A5800225B
:10295A00C2B500C2B600D2B500E4FDEF1392B4EFDF
:10296A00C313FFD2B600C2B6000DEDB408ED00E401
:10297A00FDA2B4E433FFC43333335480FCEEC313F3
:10298A004CFED2B600C2B6000DEDB408E4C2B500E2
:0B299A00D2B600C2B400D2B400AF06F9
:0129A500220F
:102BD400E4FD7F8E122A22E4FCEC902F8793FF748D
:102BE400A62CF582E43401F583E0FD122A220CECD4
:0A2BF400B407E67D807F8E022A22DE
:102E2F00E4FBEB902F8093FF12295A74A62BF582A7
:0C2E3F00E43401F583EFF00BEBB407E680
:012E4B002264
:10270600900106EBF0A3EAF0A3E9F0900105EFF0E3
:10271600C43354E0FEE42400FFEE3480FE122D7B29
:10272600E490010AF0900109E0FFA3E0FDC39F5089
:102736003A900105E0C43354E0FEE42400FFEE3491
:1027460080FE7C00EF2DFFEC3EFEA3E0FBA3E0FA4B
:10275600A3E0F990010AE0F58275830012146FFD7B
:10276600122CDC90010AE004F080BA7FF47E0102AC
:022776002D999B
:0E285100900104EFF0A3EBF0A3EAF0A3E9F08E
:10285F00E4900109F0900108E0FFA3E0FDC39F5051
:10286F003C900104E0C43354E0FEE42400FFEE3456
:10287F0080FE7C00EF2DFFEC3EFE122C73900105C5
:10288F00E0FBA3E0FAA3E0F9900109E0F58275837C
:10289F0000EF1214AE900109E004F080B87FF47ECF
:0428AF0001022D995C
:102C7300AD07AC06E4F5E275E78275E501ECF5E333
:102C8300EDF5E4C2AF75E64675E6B900D2AF122F93
:042C9300B6AFE222D4
:102CDC00AB07AA0675E78275E502EAF5E3EBF5E4C6
:102CEC00AF058FE2C2AF75E64675E6B900D2AF020A
:022CFC002FB6F1
:102D7B00AD07AC0675E78275E503ECF5E3EDF5E41D
:0E2D8B00C2AF75E64675E6B900D2AF022FB6AC
:0C2FB600E4F5E7F5E5F5E6F5E3F5E422C7
:102D9900D3EF9400EE940040147D7D7C00ED1D700E
:0D2DA900011CED4C70F7EF1F70E61E80E37B
:012DB60022FA
:102B53007F147E00122C557F38122E68122C517F61
:102B63000C122E68122C517F06122E68122C517FE4
:0B2B730001122E687F287E00022DB7A3
:102E6800900109EFF0122C51C285C2869001091217
:0A2E78002C4ED287122C51C2872283
:102E8200900108EFF0122C51D285C28690010812EF
:0A2E92002C4ED287122C51C2872269
:082C9700EBF0A3EAF0A3E9F061
:102C9F00EDB40105EF24808003EF24C0900108F00C
:0B2CAF00122C51900108E0FF022E687B
:102F1F00900105EBF0122C9F122C51900105E0FF50
:032F2F00022E82ED
:102BFE00900105122C97122C51900105E0FBA3E0D9
:102C0E00FAA3E0F9121456FF600F122E82900106FD
:0A2C1E00E475F00112155B80E0225E
:032A59009001AF3A
:102A5C00122C97E49001B3F09001B2E0FFA3E0FEDA
:102A6C00C39F501F9001AFE0FBA3E0FAA3E0F98EE7
:102A7C008275830012146FFF122E829001B3E00452
:032A8C00F080D502
:012A8F002224
:102F4400C287C285D28675A0FFD287E5A070F12220
:102E4C00E4FD122C9FE49001C8F07F20122E82909A
:0B2E5C0001C8E004F0E0C3941040EF58
:012E67002248
:072C4E00E0F5A07F057E0008
:102C5500D3EF9400EE940040147D027C00ED1D70CE
:0D2C6500011CED4C70F7EF1F70E61E80E3C0
:012C7200223F
:102DB700D3EF9400EE940040147D167C00ED1D7057
:0D2DC700011CED4C70F7EF1F70E61E80E35D
:012DD40022DC
:0B2FCD00EF1FAC0670011E4C70F622D6
:102DD500D3EF9400EE940040147D6E7C00ED1D70E1
:0D2DE500011CED4C70F7EF1F70E61E80E33F
:012DF20022BE
:102B7E00E4FDD2B77F08FE122FCDC2B77F507E0084
:102B8E00122FCDD2B77F0E7E00122FCDA2B7E43317
:0A2B9E00FD7F147E00122FCDAF055D
:012BA800220A
:0C2C2800122B7E7F017E00122DD57FCC88
:022C3400AD07EA
:102C36007B08C2B7ED1392B77F057E00122FCDD267
:072C4600B7EDC313FDDBEB4A
:012C4D002264
:102DF300E4FB7D08C2B7EBC313FBD2B730B7034480
:0D2E030080FB7F047E00122FCDDDE9AF03C0
:012E1000229F
:0F2F6300122C287F44122C347F647E00022DD55F
:082FE200122C287FBE022C34E2
:10277800E4FAFFFDFC9001041215C00000000012ED
:102788002B7E7FCC122C347F44122C34122B7E7F6C
:10279800CC122C347FBE122C34122DF3AA07122D22
:1027A800F3AD07EDFCEAFDE41212A6E4FBFA79802A
:1027B800783D12119B9001041215B4E4FFFE7D20B0
:1027C8007C41900104E0F8A3E0F9A3E0FAA3E0FB60
:0F27D80012119BE4FBFAF9783F1210AA1212DFDC
:0127E70022CF
:101D2300203223000000000000000000000000003B
:101D330000000000000000000000000000000000A0
:101D43000000000000000000000000000000000090
:101D530000000000004101C1004101C4004101C372
:051D6300004101C20077
:0E2F8E00C2ACC2998F993099FDC299D2AC2283
:102BA9009001C5EBF0A3EAF0A3E9F0AF051DEF60D2
:102BB900199001C5E0FBA3E475F001121571A9F0A4
:0B2BC900FA121456FF122F8E80E1223A
:102CFE0075C90175C83075CCDC75CDFF75CADC752C
:102D0E00CBFF7598D0758780D2CAC2ACD2AFD29C99
:012D1E002292
:0A1D68004201BB00004201BF000071
:102ECA00758921758CB1758ADFD2A9D28C758DFA74
:062EDA00758BFAD28E2276
:102E1100D3EF9400EE940040147DDC7C00ED1D7036
:0D2E2100011CED4C70F7EF1F70E61E80E302
:012E2E002281
:102EE000E4FDFCC3ED9FEC9E500A0000000DBD0008
:042EF000010C80EF62
:012EF40022BB
:102E9C00E4FFFEEF25E0FFC2963094034401FFD21D
:062EAC00960EEEB408EDE5
:012EB20022FD
:10000300E4FEEF30E704D2958002C2950000C29669
:0F0013000000D2960000EF25E0FF0EEEB408E3E8
:0100220022BB
:102EF500E4FEC297EF25E0547E4480FF12000312E2
:042F05002E9CD29795
:012F090022A5
:102AF500122B117D1E7F2D122B11E4FD7F2C122B25
:0C2B0500117D8D7F2A122B117D3E7F2B4D
:102B1100C297EF25E0547EFF120003AF05120003B8
:022B2100D29749
:012B2300228F
:052EB300F07D087F081E
:022EB800AC0765
:102EBA00E4FE122EF5AE07AF04EDF45EFD022B110F
:0E2D3E00122EB8E4FD7F01122B117D807F0A5A
:022D4C00AC07D2
:0F2D4E00E4FE122EF5AE07AF04ED4EFD022B1181
:06258A007B017A01797F5C
:0E2590009001B4EBF0A3EAF0A3E9F0A3EDF0A4
:10259E007D047F05122D3EE4FC9001B7E0FFECC3F5
:1025AE009F501C9001B4E0FBA3E0FAA3E0F98C82EB
:1025BE0075830012146FFD7F09122B110C80DA7DCA
:1025CE00037F01122B117CFF7F05122EF51CEC6090
:1025DE0004EF30E2F37F22122EF59001B8E0FBA358
:1025EE00E0FAA3E0F9EF12149C7F21122EF5900170
:1025FE00B8E0FBA3E0FAA3E0F9900001EF0214AEFD
:1019AC00900122F0A37401F0A37401F0A3747FF0F2
:1019BC00A37401F0A37401F0A3747DF07A01797F14
:0419CC007B017F0C10
:1019D00090011FEBF0A3EAF0A3E9F090011EEFF0F5
:1019E00090012974FEF0E4A3F0A3F0EF24F460105A
:1019F00024FE701690012A7412F0A37410F0800A6D
:101A000090012A7477F0A37430F090012AE04480AA
:101A1000FD7F02122B117D807F04122D3EE4900188
:101A20002DF0A3F0900122E0FF90012DE0FCA3E057
:101A3000FDC39FEC9400502890011FE0FBA3E0FA47
:101A4000A3E0F98D828C8312146FFD7F09122B1194
:101A500090012EE004F070CC90012DE004F080C4E1
:101A600090011EE0FD7F01122B11E0B40C077D8078
:101A70007F0D122D4C90012D7407F0A374D0F07FD0
:101A800004122EF590012CEFF090012EE024FFF0CF
:101A900090012DE034FFF0E07002A3E060119001AE
:101AA0002CE0FF20E00990012BE0FEEF5E60D07D8E
:101AB000807F0D122EB890012DE07002A3E070031C
:101AC000021BA97F06122EF5EF541B6003021BA315
:101AD000900129F0A3E0FF90012CE05F30E0069038
:101AE000012974FFF090011EE0640C6003021BA941
:101AF0007F0A122EF590012CEFF07F0C122EF5EFDD
:101B00005407FD6026E024FFFFE434FFFEEF780376
:101B1000C333CE33CED8F97C002DFFEC3EF99001D3
:101B200026E0FBA3E0FAA3E0C9801690012CE07543
:101B3000F008A4FF900126E0FBA3E0FAA3E0F9E59A
:101B4000F08FF012158790012CE0700204F09001E4
:101B50002CE0D3941240037412F0E490012DF0A312
:101B6000F090012CE0FFC390012EE09F90012DE04A
:101B7000940050357F09122EF5900123E0FBA3E07D
:101B8000FAA3E0F990012DE0FCA3E0F5828C83EF4D
:101B90001214AE90012EE004F070C690012DE00406
:101BA000F080BE90012974FEF07D807F0C122D4CD8
:0C1BB000E4FD7F01122B11900129E0FFE1
:011BBC002206
:0D250200900105EFF0A3EBF0A3EAF0A3E9D0
:10250F00122EB37D077F0D122B117D037F14122D19
:10251F004C900105E090010BF09001227401F0A3A3
:10252F00F0A37401F0A3740BF0A37401F0A3740172
:10253F00F0A37409F07A01790B1219CCEF7039906E
:10254F000109E07004A3E06410702D90010BE0FE10
:10255F00900106E0FBA3E0FAA3E0F9EE12149C90C1
:10256F00010CE0FE900106E0FBA3E0FAA3E0F99076
:0A257F000001EE1214AE80027FFE90
:01258900222F
:0B207400900105EBF0A3EAF0A3E9F0F7
:10207F00E4900109122EB3E4FD7F0D122B117D8028
:10208F007F0E122EB890010C7493F0A37420F09071
:10209F0001227402F07B01A314F0A37401F0A37466
:1020AF000CF0A3EBF0A37401F0A3740AF07A01799A
:1020BF000C7F0C1219D0900108EFF07058FC740CC3
:1020CF002CF582E43401F583E0FE900105E0FBA3DB
:1020DF00E0FAA3E0F9AF048F82758300EE1214AE1D
:1020EF00900109E0FE740C2FF582E43401F583E0D2
:1020FF00FDEE6D900109F00CECB404C2740C2CF5DC
:10210F0082E43401F583E0FF900109E06F600690EF
:10211F00010874FEF07D807F0E122D4C900108E0B7
:01212F00FFB0
:01213000228C
:0B229F00900163EBF0A3EAF0A3E9F06C
:1022AA009001687493F0A37470F0E490016EF0FCEE
:1022BA00900163E0FBA3E0FAA3E0F9AF048F827513
:1022CA00830012146FFE746A2FF582E43401F583D9
:1022DA00EEF090016EE0FE8F8275830012146FFD9E
:1022EA00EE6D90016EF00CECB404C59001B8740167
:1022FA00F0A37401F0A3746FF07B017A0179687D11
:10230A0007122590122EB49001227409F0A37401C9
:10231A00F0A37401F0A37468F0A37401F0A374012C
:10232A00F0A37466F07B017A0179687F0C1219D0E8
:10233A00EF700F900166E07004A3E064187003FF69
:04234A0080027FFE90
:01234E00226C
:1027E800900139EFF0A3EDF0783B7C017D017E008C
:1027F8007F0612143078417C017D01900134E0FBA2
:10280800A3E0FAA3E0F97E007F06121430900122BB
:10281800740CF0A37401F0A37401F0A37439F0A34D
:102828007401F0A37401F0A37437F07B017A017985
:10283800397F0E1219D0AD07ED70097F08122EF5F9
:08284800EF20E3027DFEAF0565
:012850002265
:0B23E50090014BEBF0A3EAF0A3E9F03D
:1023F0009001517430F0A3EFF09001B87401F0A394
:102400007401F0A37453F07B017A0179517D0212BB
:1024100025909001227404F0A37401F0A37401F0DC
:10242000A37451F0A37401F0A37401F0A3744FF0EE
:102430007B017A0179517F0C1219D090014EEFF097
:102440007028A3E07004A3E06490701E90014BE03C
:10245000FBA3E0FAA3E0F8AC02AD037B017A0179BB
:10246000517E007F10121430800690014E74FEF0F1
:0524700090014EE0FFA9
:012475002244
:0B234F0090017AEBF0A3EAF0A3E9F0A4
:10235A0090017F74A0F0A3EFF09001B87401F0A38C
:10236A007401F0A37481F07D0212258A7404121993
:10237A00ACEF701690017DE07004A3E06404700A6B
:10238A0090017FE0540F640A60027FFEEF704B7881
:10239A007F7C017D0190017AE0FBA3E0FAA3E0F9DA
:1023AA007E007F101214309001B87401F0A37401FA
:1023BA00F0A3748FF07D1012258A74121219ACEFF3
:1023CA00701690017DE07004A3E06404700A900125
:0A23DA007FE0540F640A60027FFEEA
:0123E40022D6
:102908009001947450F0E4A3F07B019001B804F0B6
:10291800A37401F0A37496F07A0179947D021225CC
:10292800909001227404F0A37401F0A37401F0A341
:102938007494F0A37401F0A37401F0A37492F07B73
:10294800017A0179947F0C1219D0900191EFF07FF0
:01295800007E
:01295900225B
:102AC300D2937F0A7E00122EE0C293122EE0D2939D
:102AD300122EE07D0F7F01122B117F0A7E00122E32
:102AE300E07D3D7F11122AF57D407F15122B117F6A
:022AF3000022BF
:102B2400EF64417024122EB47D3D7F11122B117D70
:102B3400867F17122B117D7F7F26122AF57FE87E70
:0F2B440003122EE0122F3280037FFF227F002228
:102F32007F14122EF5EF540370077D037F14122DB8
:012F42004C42
:012F4300226B
:072FEA007D037F14022EB8E5
:0E2F9C00122AC3122FEA122F327F41022B2479
:1010A30002134BE86480F8E933E83360110460F01D
:1010B300ED33EC337009E8FCE9FDEAFEEBFF2204B3
:1010C30060DED3EB9FEA9EE99DE8C2E78CF0C2F7AE
:1010D30095F0400CE8CCF8E9CDF9EACEFAEBCFFB7A
:1010E30012131685D0F05804700320D5B3E80470AA
:1010F300075002B2D502135592D5EC0460F7E4CC45
:10110300C0E0C398F8603B94186008400DD0E0FB42
:1011130002132DE4FBFAC9FC8028E830E406E4C995
:10112300FBE4CAFCE830E305E4C9CACBFCE8540796
:101133006010F8C3E913F9EA13FAEB13FBEC13FCA1
:10114300D8F130F52FC3E49CFCEF9BFFEE9AFEED44
:1011530099FDD0E0FBEF4E4D4C701222DB030213DE
:1011630052EC2CFCEF33FFEE33FEED33FDED30E7B5
:10117300EB02132DEF2BFFEE3AFEED39FDD0E0FB32
:1011830050130BBB0003021355ED13FDEE13FEEFDB
:0811930013FFEC13FC02132D05
:10119B00EC4D6011E8497017ED33EC3304600DE44E
:1011AB00FCFFFEFD22E933E8330470F802134B1207
:1011BB00131658046009E4CC248150062850090208
:1011CB001355284003021352C0E0EB4A7044B98018
:1011DB0006D0E0FB021341EF4E701CBD8008EBFF05
:1011EB00EAFEE9FD80EBE98DF0A4FEE5F002128446
:1011FB00E9CDF9EAFEEBFFEF89F0A4FCE5F0CE892F
:10120B00F0A42EFFE435F0CD89F0A42DFEE435F0EB
:10121B008067EF4E7005BD80D780C3EF8BF0A4AC19
:10122B00F0EE8BF0A42CFCE435F0F8EF8AF0A42C54
:10123B00E5F038FCE433CB8DF0A42CFCE5F03BF867
:10124B00EE8AF0A42CFCE5F038F8E433CF89F0A457
:10125B002CFCE5F038CF3400CE89F0A42FFFE5F05D
:10126B003EFEE433C98DF0A42EFEE5F039CD8AF0B5
:10127B00A42FFFE5F03EFEE43DFD33D0E0FB50072D
:10128B000BBB000F021355EC2CFCEF33FFEE33FEC0
:06129B00ED33FD02132DEE
:1012A10075F020800E75F010800575F0087D007EC8
:1012B100007F003392D530D5031215A6EC334010D0
:1012C100EF33FFEE33FEED33FDEC33FCD5F0ED22D1
:0E12D100E5F0247EA2D513CC92E7CDCEFF220D
:1012DF00EDD2E7CD33EC3392D524814006E4FFFE07
:1012EF00FDFC22FCE4CFCECDCC24E0501174FF8066
:1012FF00EDC3CC13CCCD13CDCE13CECF13CF047003
:07130F00F030D5DE0215A647
:10131600E9D2E7C933E833F892D5EDD2E7CD33EC1D
:0713260033FC5002B2D52296
:10132D00EC30E7100FBF000C0EBE00080DBD000421
:10133D000BEB6014A2D5EB13FCED92E7FD2274FFCD
:10134D00FCFDFEFF22E480F8A2D574FF13FC7D8026
:03135D00E480EF3A
:0300000002247661
:0C247600787FE4F6D8FD7581540224BD87
:10136000E709F608DFFA8046E709F208DFFA803E6F
:1013700088828C83E709F0A3DFFA8032E309F6085C
:10138000DFFA8078E309F208DFFA807088828C83C4
:10139000E309F0A3DFFA806489828A83E0A3F60878
:1013A000DFFA805889828A83E0A3F208DFFA804C52
:1013B00080D280FA80C680D4806980F28033801029
:1013C00080A680EA809A80A880DA80E280CA803392
:1013D00089828A83ECFAE493A3C8C582C8CCC5830A
:1013E000CCF0A3C8C582C8CCC583CCDFE9DEE780DA
:1013F0000D89828A83E493A3F608DFF9ECFAA9F059
:10140000EDFB2289828A83ECFAE0A3C8C582C8CCAE
:10141000C583CCF0A3C8C582C8CCC583CCDFEADEC7
:10142000E880DB89828A83E493A3F208DFF980CC29
:1014300088F0EF60010E4E60C388F0ED2402B40422
:101440000050B9F582EB2402B4040050AF232345C9
:0614500082239013B0732B
:10145600BB010689828A83E0225002E722BBFE0294
:09146600E32289828A83E49322C7
:10146F00BB010CE58229F582E5833AF583E0225032
:10147F0006E92582F8E622BBFE06E92582F8E2227C
:0D148F00E58229F582E5833AF583E4932296
:10149C00BB010689828A83F0225002F722BBFE012F
:0214AC00F32229
:1014AE00F8BB010DE58229F582E5833AF583E8F074
:1014BE00225006E92582C8F622BBFE05E92582C820
:0214CE00F22208
:1014D000BC000BBE0029EF8DF084FFADF022E4CC00
:1014E000F875F008EF2FFFEE33FEEC33FCEE9DECC9
:1014F000984005FCEE9DFE0FD5F0E9E4CEFD22ED0F
:10150000F8F5F0EE8420D21CFEADF075F008EF2F58
:10151000FFED33FD4007985006D5F0F222C398FD49
:051520000FD5F0EA22E6
:10152500C2D5EC30E709B2D5E4C39DFDE49CFCEEE1
:1015350030E715B2D5E4C39FFFE49EFE1214D0C375
:10154500E49DFDE49CFC80031214D030D507C3E470
:061555009FFFE49EFE2250
:10155B00C5F0F8A3E028F0C5F0F8E582158270021B
:06156B001583E038F022B8
:10157100A3F8E0C5F025F0F0E5821582700215832D
:06158100E0C838F0E8228A
:10158700BB010A89828A83F0E5F0A3F0225006F7AF
:0F15970009A7F01922BBFE06F3E5F009F31922AC
:0E15A600C3E49FFFE49EFEE49DFDE49CFC2256
:0C15B400ECF0A3EDF0A3EEF0A3EFF022AA
:1015C000A8828583F0D083D0821215D71215D71246
:1015D00015D71215D7E473E493A3C583C5F0C5836B
:1015E000C8C582C8F0A3C583C5F0C583C8C582C875
:0115F00022D8
:102F0A00E4FFFE121456600C0FEF70010E09E9700F
:052F1A00F20A80EF2225
:102482000229E9E493A3F8E493A34003F68001F25E
:1024920008DFF48029E493A3F85407240CC8C3335B
:1024A200C4540F4420C8834004F456800146F6DF2A
:1024B200E4800B0102040810204080901BBDE47EE2
:1024C200019360BCA3FF543F30E509541FFEE4931F
:1024D200A360010ECF54C025E060A840B8E493A3E6
:1024E200FAE493A3F8E493A3C8C582C8CAC583CA11
:1024F200F0A3C8C582C8CAC583CADFE9DEE780BEC9
:011D72000070
:00000001FF
